:100000000C949A010C94E1010C94E1010C94E1012F
:100010000C94E1010C94E1010C94E1010C94E101D8
:100020000C94E1010C94E1010C94CC1C0C949F1DE8
:100030000C94A4170C94E1010C94E1010C94E101DF
:100040000C94E1010C94E1010C94E1010C94E101A8
:100050000C94E1010C940F180C94E1010C94E10153
:100060000C94E1010C94E1010C94E1010C94E10188
:100070000C94E1010C94E1010C94E1010C94E10178
:100080000C94E1010C94E1010C94E1010C94E10168
:100090000C94E1010C94E1010C94E1010C94E10158
:1000A0000C94E1010C94E1010C94E10129001E0083
:1000B0001F0020002100220023002400250026002C
:1000C00027002D002E002A004C004A002B001400AF
:1000D0001A000800150017001C0018000C00120080
:1000E00013002F003000310000004D0039000400E3
:1000F0001600070009000A000B000D000E000F009B
:10010000330034003200280000004B00E10064009E
:100110001D001B000600190005001100100036002C
:1001200037003800E500520000000151E000E30014
:10013000E2000000000000002C00000000000000B1
:10014000E600E6005000510000004F00005C3A005D
:100150003B003C003D003E003F00400041004200AB
:1001600043004400450001000100010001000100BE
:100170000100010001000100010001000100010077
:100180000100010001000100000001000100010068
:100190000100010001000100010001000100010057
:1001A0000100010001000100000001000100010048
:1001B0000100010001000100010001000100010037
:1001C0000100010001000100000001000100010028
:1001D000010000000000000001000000000000001D
:1001E000010001000100010000000100180363008C
:1001F00063006400360035002F00610074006D005C
:1002000065006C00000020036300610062006C0068
:10021000650063006100720064006500730069009E
:1002200067006E00730000000403090409023B002C
:10023000020100A0FA0904000001030101000921E4
:10024000110100012240000705810308000A09048A
:1002500001000103000000092111010001227B00BF
:100260000705820320000A1201100100000008FFA8
:100270002109AA01000102000105010902A101856D
:10028000020901A100050919012908150025019598
:1002900008750181020501093009311581257F9515
:1002A000027508810609381581257F950175088139
:1002B00006050C0A38021581257F9501750881060F
:1002C000C0C005010980A101850319012AB70015E5
:1002D0000126B700950175108100C0050C0901A128
:1002E00001850419012AA002150126A002950175B5
:1002F000108100C005010906A101050719E029E7E1
:100300001500250195087501810295017508810187
:100310000507190029FF150026FF009506750881BD
:1003200000050819012905950575019102950175CA
:10033000039101C011241FBECFEFDAE0DEBFCDBFB5
:1003400004B603FE27C08091680290916902A091D3
:100350006A02B0916B028730904BA740B04BD1F44A
:10036000109268021092690210926A0210926B0257
:1003700014BE84B7877F84BF0FB6F894A895809188
:100380006000886180936000109260000FBEE0E022
:10039000F8E3099511E0A0E0B1E0ECE1F0E402C07F
:1003A00005900D92A638B107D9F722E0A6E8B1E092
:1003B00001C01D92A836B207E1F70E940C1A0C94F6
:1003C000C41F0C940000879A089561FD02C08F9AA3
:1003D00008958F98089581E0089581E008950C9420
:1003E000ED0108950C94F1011F93CF93DF9300D09A
:1003F00000D00F92CDB7DEB749835A836B8330911B
:10040000B50189819A8131111DC06623B9F022237B
:10041000A9F00E94F714182F682F89819A810E94F1
:10042000A31469817A81812F0F900F900F900F9004
:100430000F90DF91CF911F910C94B8020E94CF14BE
:10044000182FEFCF0E94F71469817A81EDCFFC015C
:10045000262F408151816281738184810C94F40143
:10046000CF93DF93D82FC92F60E00E9427026D2F12
:100470007C2FDF91CF910C94F2010E945E180E94B4
:100480004E16811102C00E94F2160E94A9020C941D
:10049000C5040C94C80408950E945B0F0E944B028F
:1004A0002FEF84E39CE0215080409040E1F700C0B2
:1004B00000000C9433180F931F93CF93DF93EC013C
:1004C00061E00E9427028C01BE010E94EF01882397
:1004D00029F1BE01C8010E94D1088823F9F0BE01AC
:1004E000C8010E9426098823C9F0BE01C8010E94E4
:1004F000FE09882399F08A81882339F001158CE55B
:10050000180751F00F3D1C4579F0CE01DF91CF91D6
:100510001F910F910C94EB010E944C0280E0DF913F
:10052000CF911F910F9108950E94F216F7CF089571
:100530000C94970281E00895CF93C82F0E949A02ED
:10054000882319F0C1FD03C08E9ACF9108958E982B
:10055000FCCF869A8E9A0895CF93C82F0E94980256
:100560008C2FCF910C949C0290E080E00895089528
:10057000E72FF0E095E0899FE00DF11D112484E064
:10058000EE0FFF1F8A95E1F7E60FF11DEE0FFF1F3B
:10059000E455FF4F859194910895FC01EE0FFF1FE4
:1005A000E451FE4F859194910895CF93DF930E947B
:1005B000B8020E94E903EC01811520E5920708F0DA
:1005C00043C0811530E4930708F0B2C0803E910526
:1005D000E8F4803C910508F0A0C0883A910578F4D1
:1005E000853A910508F08BC08130910521F0049780
:1005F000813A910540F4CE01DF91CF9108958F3B70
:10060000910509F07FC0D0E0C0E0F5CFC11580E2D0
:10061000D80770F4CF3FD10509F068F7C83ED1057F
:1006200050F3CE018D5E9109D065439720F3EBCF57
:10063000CE01C11520E3D20708F475C09927D3FD78
:1006400074C0EC01D06CD7CF811535E5930760F508
:10065000C11584E5D80708F09EC0C11523E5D2076F
:1006600078F4C11532E5D30708F082C0C11581E5E1
:10067000D80708F460C0DC2FCC27C16FD06ABBCF8D
:100680009E012370332781E090E002C0880F991FFC
:100690002A95E2F7C695C69520E2C29FE001112493
:1006A000C82BD92BDA68A7CF81153AE59307B0F4A8
:1006B000C11589E5D80708F07EC0C11526E5D20727
:1006C00008F46EC0CE0198558F3F910511F008F0E7
:1006D0009ACFDC2FCC27C06FD06A8DCF9056811572
:1006E000904208F090CF8D2F8F710E94810490E08E
:1006F000982F882788279F718C2BEC015AC0A497CC
:10070000D06479CFC85AD0E0CC0FDD1FCB5EDE4F6E
:100710000990D881C02DD4646ECF805C91090E946D
:10072000CD02EC0168CF9F70FACFEC01D86C63CF9B
:10073000DF70D06A60CF9E0174E0369527957A9578
:10074000E1F723708C2F86958695837030E2839F26
:10075000C0011124922BC37021E030E002C0220FAF
:10076000331FCA95E2F7822B932BEC01DC6843CF51
:100770009E012370332781E090E002C0880F991F0B
:100780002A95E2F7C695C69520E2C29FE0011124A2
:10079000C82BD92BEBCFDC2FCC27C46FD06A2BCF43
:1007A0008C2F0E948104C82FD0E0DC2FCC27CC27CF
:1007B000DF71D06220CF8C2F8F700E94810434E0D3
:1007C000D695C7953A95E1F7CF709C2FEC01D0698B
:1007D00012CF803E910599F1C8F48133910509F457
:1007E00076C048F48932910509F46AC08A329105CD
:1007F00009F474C0089589339105D1F082389105C8
:10080000B9F08533910509F454C00895843E9105EB
:1008100099F138F4823E9105F9F0833E910509F192
:100820000895863E910599F1873E9105B9F10895A5
:10083000209159022370A1F080EE90E0089520915C
:10084000590220FD52C030915A0230FF09C024FFE6
:100850004FC090E080E004C02091590222FDF7CF04
:1008600008952091590222FD46C030915A0230FD70
:10087000E3CF24FFF5CFEDCF20915A0221FFF0CF37
:100880008091590284FDE5CF87EE90E00895209194
:10089000590223FFE5CF24FDDCCFF6CF209159028A
:1008A00023FD2CC030915A0231FFE3CF84EE90E05B
:1008B00008952091590225FFD3CF89E290E0089551
:1008C0002091590225FFCCCF85E390E00895209137
:1008D000590226FFC5CF8AE290E00895209159027F
:1008E00026FFBECF81E390E0089589E390E008956C
:1008F00083EE90E0089582EE90E0089586EE90E019
:1009000008959091590292FF06C0282F287128302F
:10091000F9F4877F846093FF06C0282F287128315F
:10092000F1F4877E846120915A0220FF06C0382F9F
:1009300038713830D9F4877F816021FF06C0282FB5
:1009400028712831D1F4877E816194FD877E0895D6
:10095000282F24712430F9F68B7F8860DCCF282F74
:100960002471243101F78B7E8861DDCF382F3171FE
:10097000313019F78E7F8860E0CF282F2171213127
:1009800021F78E7E8861E1CF08950C94C404089508
:100990000C94C704E82FF0E0EE0FFF1FE55BFD4F5E
:1009A000808191810895089580EA8A95F1F70895EC
:1009B00000C008950C94D404F894E82FE295EF70E9
:1009C000F0E041A18F7021E030E0B90102C0660F74
:1009D000771F8A95E2F7CB01962F9095942391A3E8
:1009E00092A1892B82A3789408950F931F93CF939C
:1009F000DF9380EF0E94DC0486EC0E94DC0481E936
:100A00000E94DC0480E30E94DC0487E60E94DC0490
:100A1000C3E4D1E003E511E089910E94DC040C17E6
:100A20001D07D1F78AE0E1E4F2E0DF01982F1D9283
:100A30009A95E9F7EBE4F2E0DF011D928A95E9F778
:100A400085E00E94AD05DF91CF911F910F910C942D
:100A50003D02AF92BF92CF92DF92EF92FF920F933F
:100A60001F93CF93DF9303E511E0C1E4D2E0C12CE3
:100A7000D12CEE24E394F12CF80181918F01F894AC
:100A8000E82FE295EF70F0E021A18F70A70102C07E
:100A9000440F551F8A95E2F7CA01922F982B91A314
:100AA00092A18095892382A378940E94D804E3E4DC
:100AB000F1E030E020E0B12CA12C4191A42FA295CF
:100AC000AF70A05EB0E08C9190E04F7002C0959541
:100AD00087954A95E2F780FD3BC0C701022E02C010
:100AE000880F991F0A94E2F7A82AB92A2F5F3F4F6F
:100AF0002031310511F7F801319780810E94DC0423
:100B000054E0C5120E94DA0488819981A816B906BA
:100B100011F1B982A88281E0D82AC394229685E097
:100B2000C812AACF2D2D45E06BE472E081E492E07B
:100B30000E94AE050E9449028D2DDF91CF911F9139
:100B40000F91FF90EF90DF90CF90BF90AF900895FE
:100B500080E090E0C9CF80E0DFCF0895FF920F934F
:100B60001F93CF93DF93F82E092F162FD72FC42F63
:100B7000222349F081E080938A010E94D417909348
:100B800089018093880180918A018823A1F0809156
:100B90008801909189010E940018069760F0EF2D5E
:100BA000F02FA12FBD2F90E080E0D0E08C179D07A3
:100BB00044F010928A01DF91CF911F910F91FF9025
:100BC0000895219131912D933D930196EFCF80911E
:100BD000910180FF12C06091050185E0689FB0011E
:100BE0001124759567957595679560387105A8F519
:100BF00061157105A1F1862F089581FF09C06091EB
:100C0000050185E0689FB001112475956795EDCFCA
:100C10006091050182FD0AC0209190012223D1F04C
:100C20009091040160910501291728F085E0689FE3
:100C3000B0011124DACF269F9001112485E0829F14
:100C4000A001839F500D1124692F70E0CA010E94FA
:100C5000541FCBCF65E070E0CECF8FE7089581E0E1
:100C600008958091910180FF0CC06091010170E0B6
:100C700075956795759567956115710549F1862F8D
:100C8000089581FF06C06091010170E07595679538
:100C9000F3CF6091010182FD0BC090918F019923E8
:100CA000A1F06091000180910101961738F0682F42
:100CB00070E06038710500F38FE70895899FC001E7
:100CC000112470E00E94541FF4CF61E070E0D7CF90
:100CD00081E00895E3E1E80FE331E0F5F0E0EA5365
:100CE000F04E0C94681F0E94E70581958093950152
:100CF00008950E94E705FACF0E94E7058195809349
:100D0000940108950E94E705FACF0E94310680936E
:100D1000960108950E9431068195F9CF0E9431060F
:100D200081958093970108950E943106FACF815FE3
:100D3000990B21E030E001C0220F8A95EAF78091FB
:100D40009301822B8093930108958091910181609A
:100D5000809391010895809191018260F9CF8091F3
:100D600091018460F5CF409194018D3E59F48091BA
:100D7000950187FF0DC01092950141110BC0109293
:100D8000900108C08E3E81F48091950118169CF365
:100D9000442381F08091960190919701892B09F06D
:100DA0005AC010928F0108958F3E49F447FFF0CF4B
:100DB00010929401809195018111ECCFE0CF803F9A
:100DC00019F41416ACF3E4CF90919601893F29F4FD
:100DD0001916F4F610929601DBCF8A3F19F497FFAB
:100DE000D7CFF8CF909197018B3F29F497FFD0CFC1
:100DF00010929701CDCF8C3F19F41916CCF3C8CFC0
:100E00009FE0980F983090F4815F990B21E030E0DB
:100E1000B90102C0660F771F8A95E2F7CB01809572
:100E200090919301892380939301B2CF8D3F31F448
:100E3000809191018E7F80939101AACF8E3F21F402
:100E4000809191018D7FF7CF8F3F09F0A1CF8091E5
:100E500091018B7FF0CF08950E94D41720919401C7
:100E600030919501232B21F080938D0190938E0179
:100E70002091960130919701232B21F080938B01D3
:100E800090938C0182E991E00C94490ACF92DF9211
:100E9000EF92FF920F931F93CF93DF9300D000D078
:100EA00000D0CDB7DEB726E0E2E9F1E0CE01019651
:100EB000DC0101900D922A95E1F7C0909401D09049
:100EC0009501E0909601F090970110929401109294
:100ED000950110929601109297012C2D2D298C01CD
:100EE00091F080918D0190918E010E9400189C01DB
:100EF00080919001882309F440C0909106019217D7
:100F0000130608F448C08E2D8F2991F080918B0133
:100F100090918C010E9400189C0180918F01882380
:100F200009F478C0909102019217130608F480C06A
:100F30008091940190919501892B90919601892B34
:100F400090919701892B11F00E942C0786E0F801FF
:100F5000A2E9B1E001900D928A95E1F726960FB6CD
:100F6000F894DEBF0FBECDBFDF91CF911F910F91DF
:100F7000FF90EF90DF90CF900895409107019AE0A5
:100F8000499FA00111244217530708F0BCCF8F5F7F
:100F90008093900102C08F3FD1F7CC2059F00E947E
:100FA000E7059FEF1C140CF491E0899F802D11241C
:100FB00080939401DD2059F00E94E7059FEF1D14F6
:100FC0000CF491E0899F802D11248093950130913C
:100FD0009401332309F497CF20919501222309F43A
:100FE00092CF45EB3403C0011124992359F090931B
:100FF000940145EB240390011124332339F03093FD
:10100000950181CF81E080939401F3CF81E08093BB
:10101000950179CF409103019AE0499FA0011124E5
:101020004217530708F084CF8F5F80938F0102C06F
:101030008F3FD1F7EE2059F00E9431069FEF1E142A
:101040000CF491E0899F802D112480939601FF205C
:1010500059F00E9431069FEF1F140CF491E0899F14
:10106000802D112480939701309196012091970152
:10107000332309F45DCF222309F45ACF45EB34031F
:10108000C0011124992359F09093960145EB240354
:1010900090011124332339F03093970149CF81E037
:1010A00080939601F3CF81E08093970141CF86E052
:1010B000E2E9F1E0DF011D928A95E9F710929001D3
:1010C00010928F011092910108950F931F93CF9367
:1010D000DF93C42FD22FFC0182818823C9F0409373
:1010E0009A010E94D417909399018093980180E20D
:1010F0008C0F883008F050C0C77081E001C0880FA5
:10110000CA95EAF7DF91CF911F910F910C94A20C31
:1011100010919A01141335C0809198019091990112
:101120000E940018883C910560F5C0E2CD0F1D17A4
:10113000B9F080E2810F883040F4177081E001C07F
:10114000880F1A95EAF70E94A90CC83048F481E08C
:101150009D2F977001C0880F9A95EAF70E94A20C04
:10116000802F0E949A0CC830B8F4D77081E001C07B
:10117000880FDA95EAF7DF91CF911F910F910C94C8
:10118000A90C80E28C0F883038F4C77081E001C070
:10119000880FCA95EAF7EFCFDF91CF911F910F919A
:1011A00008950F939C01CB01243F4CE53407A1F136
:1011B00090F4293DFCE53F0749F12A3D4CE5340711
:1011C000E9F1283D3C45C1F0FC0182818823E1F131
:1011D00010929A0119C0263FFCE53F0719F1273FFD
:1011E0004CE5340729F1253F3C4571F707E225EE30
:1011F00044EE65EF7CE505C006E221EE41EE68EDC8
:101200007CE50E94650880E00F91089507E225EED5
:1012100045EE69ED7CE5F5CF06E221EE40EE64EFA8
:101220007CE5EFCF06E221EE42EE66EF7CE5E9CF0A
:1012300007E225EE46EE67EF7CE5E3CF08E221E02A
:1012400045EE6AED7CE5DDCF81E0DECFCF93DF9325
:10125000EC01FB018281882309F4CEC0C631FCE594
:10126000DF07E0F4C2309CE5D907F0F00E94611678
:1012700090935A0280935902C631ECE5DE0720F5BF
:10128000C230FCE5DF0798F48091590290915A0230
:101290000E946F160E945B0F80E006C09E012B5FCC
:1012A0003C452930310510F3DF91CF910895FE01BF
:1012B000E350FC45809159028160E331F105B0F4BF
:1012C000E752F04E0C94681FCE018B5F9C45099746
:1012D000D8F6FE01EC5FFC45E830F10590F4E451EE
:1012E000F04E0C94681F80915902826080935902DD
:1012F000CBCF809159028460F9CF809159028860E8
:10130000F5CF80915A02816080935A02BDCF8091BF
:101310005A028260F9CF809159028061E7CF8091B3
:1013200059028062E3CF809159028064DFCF0E942E
:101330005B0F809159028068D9CF809159028C60EF
:10134000D5CF80915A028360DFCF809159028E7F82
:10135000CDCF809159028D7FC9CF809159028B7F6B
:10136000C5CF80915902877FC1CF80915A028E7F6D
:10137000CBCF80915A028D7FC7CF809159028F7E4B
:10138000B5CF809159028F7DB1CF809159028F7B6B
:10139000ADCF0E945B0F809159028F77A7CF8091CC
:1013A0005902837FA3CF80915A028C7FADCF809169
:1013B000590282FB992790F921E0922790FB82F94C
:1013C00090FB83F993CF80915A02982F909591705A
:1013D0008E7F892B90FB81F997CF0E945B0F9091B4
:1013E0005902892F97FB87F9805880CF81E00E94AE
:1013F000F4164ACF80E0FBCF81E056CFCF93DF9346
:10140000EB0186319C4539F50E949415982F917116
:101410008A7A911180E09A81992399F091E0811163
:1014200001C090E090939B01811109C089E20E9464
:101430006F150E94E31580E0DF91CF91089585E359
:10144000F6CF80919B01811104C089E20E9476153C
:10145000F0CF85E3FBCF81E0EFCF9093A1018093A4
:10146000A0010895E091A001F091A101309721F031
:101470000190F081E02D099480E00895E091A001B1
:10148000F091A101309721F00280F381E02D0994C1
:101490000895DC01E091A001F091A101309739F0AD
:1014A00082E08C930480F581E02DCD0109940895AC
:1014B00020919E0130919F012817390771F0909378
:1014C0009F0180939E01E091A001F091A1013097CE
:1014D00021F00680F781E02D0994089520919C0168
:1014E00030919D012817390771F090939D018093E9
:1014F0009C01E091A001F091A101309721F00084BE
:10150000F185E02D099408950E94E0176093B101E0
:101510007093B2018093B3019093B4016093AD01D5
:101520007093AE018093AF019093B001089585B799
:10153000806885BF85B7806885BF08950895089540
:101540000C949F0A0E94970A86E496E10E9457181D
:101550000E949E0A0C94E30181E008950C94AC0A69
:10156000089508950E94CB170E94F5040E947518F3
:101570000C94A00A8F929F92AF92BF92CF92DF926B
:10158000EF92FF920F931F93CF93DF9300D000D081
:101590000F92CDB7DEB70E94B00A0E94B10A0E9436
:1015A000290581110E94840A53EA852E51E0952E67
:1015B00010E000E0A02E802F0E94CA047C01F401FC
:1015C000C190D1904F01C816D90609F45BC0809133
:1015D000350281FD0E94D304C6018E259F25B12CC2
:1015E000CC24C394D12C9C012C213D21232B09F424
:1015F00043C00E94AE0A8823A9F0B982AA82EC20D7
:10160000FD2081E0EF2809F480E08B830E94D4174D
:101610008160782F9D838C8349815A816B81892FCA
:101620000E946B0B000F111FF801ED55FE4F8081DA
:1016300091818C259D25918380830E9446070E947D
:10164000320A9091A2018917A1F10E94320A809377
:10165000A2010F900F900F900F900F90DF91CF91FC
:101660001F910F91FF90EF90DF90CF90BF90AF90C0
:101670009F908F900C94AC02B394CC0CDD1CF0E1E5
:10168000BF12B1CF0F5F1F4F0530110509F092CF88
:101690008FEF89838A831B820E94D4178160782F01
:1016A0009D838C8349815A816B81892F0E946B0BAA
:1016B000C4CF0F900F900F900F900F90DF91CF91AC
:1016C0001F910F91FF90EF90DF90CF90BF90AF9060
:1016D0009F908F900895CF93DF93CDB7DEB72B9770
:1016E0000FB6F894DEBF0FBECDBF4F835887698712
:1016F0007A878B8761110E94B6151E8285E0FE01F4
:101700003796DE01119601900D928A95E1F7498195
:101710005A816B817C818D819E812B960FB6F894C6
:10172000DEBF0FBECDBFDF91CF910C94B911FC018C
:10173000808191810C943915CF93C82F882309F4A7
:101740008AC08238C1F40E94320A81FD84C089E3D4
:101750000E946F150E94E3152FEF31EE84E02150B7
:1017600030408040E1F700C0000089E30E94761518
:10177000CF910C94E3158338A1F40E94320A80FDC6
:101780006AC083E50E946F150E94E3159FEF21EE6A
:1017900034E0915020403040E1F700C0000083E584
:1017A000E5CF8438A1F40E94320A82FD54C087E458
:1017B0000E946F150E94E3158FEF91EE24E0815097
:1017C00090402040E1F700C0000087E4CFCF8CEFCD
:1017D0008C0F813A90F46C2F80910801909109014F
:1017E0000E940B17882329F08C2F0E9476150E94E7
:1017F000E3158C2F0E946F15BBCF80E28C0F8830D1
:1018000048F4C77081E001C0880FCA95EAF70E94CA
:101810009715AECF8BE58C0F833038F42C2F2452E4
:10182000330BC901CF910C94580AE8E5EC0FE7316E
:1018300050F4F0E0EE0FFF1FE85AFE4F80819181D7
:10184000CF910C946E0ACD3E30F08C2F0E946A0628
:10185000CF910C942C07CF910895882309F452C09E
:10186000823871F40E94320A81FF4CC089E30E94E1
:101870006F150E94E31589E30E9476150C94E31519
:10188000833859F40E94320A80FF3CC083E50E94ED
:101890006F150E94E31583E5EFCF843859F40E9459
:1018A000320A82FF2FC087E40E946F150E94E31561
:1018B00087E4E2CF9CEF980F913AF0F290E2980F14
:1018C000983050F4877091E001C0990F8A95EAF73B
:1018D000892F0E949D15D2CF9BE5980F933020F45D
:1018E00090E080E00C94580A98E5980F973120F426
:1018F00090E080E00C946E0A8D3E20F00E94B306CA
:101900000C942C0708951F93CF93DF93182FEB01AE
:101910000E949C0B209731F4812FDF91CF911F9172
:101920000C942D0C8FE99FE00197F1F700C00000A7
:101930002197F0CF70E060E0893311F460E570E04A
:101940000C94830C882321F00E9497150C94E315C6
:101950000895882321F00E949D150C94E3150895A5
:10196000AF92BF92CF92DF92EF92FF920F931F93AD
:10197000CF93DF9300D000D00F92CDB7DEB76C01CC
:101980006D837983FC011281058102950F700E949D
:101990008D15E82E8823A1F0E12E112389F089818D
:1019A000807F803429F08D81805EE12C883040F08A
:1019B00082E00E942E160E948D1591E0E82EE92605
:1019C000A980A2949FE0A922B12CF501EC50F04E21
:1019D0000C94681F09810F70F981F07F11F0029556
:1019E000007F1123B1F0002361F08D81805E88308B
:1019F00018F01D81111109C0802F0E9497150E94B7
:101A0000E3158D810E949C0B15C0802F0E94A815A4
:101A1000F6CF8D810E942D0C002361F08D81805EB8
:101A2000883018F01D81111133C0802F0E949D1540
:101A30000E94E31598E0A91AB108E4E0AE16B104DB
:101A400020F40E94320A0E94AC02EE2009F4CEC1BA
:101A50000E94891580FDCAC1F60112820E94831579
:101A60000E949313C6010E941D0F0E9483150F90C0
:101A70000F900F900F900F90DF91CF911F910F91CA
:101A8000FF90EF90DF90CF90BF90AF900C94C41375
:101A9000802F0E94AE15CCCF29812F70F22E398174
:101AA000307F303219F0F29480EFF8228D81882354
:101AB00069F0813049F1112391F1002351F1F601D0
:101AC000858180FF9ECF8F70858323C0112381F095
:101AD000011106C00E94CA158F290E94A20CAACF2C
:101AE0000130C1F70E94CA158F290E94D015A2CFDC
:101AF000011106C00E94D9158F2D0E94A90C9ACF02
:101B0000013009F497CFF6CF112329F0063008F001
:101B100091CF8F2DE2CF053008F08CCFEDCF002391
:101B200059F30D81093349F41FEF27EE33E01150CB
:101B300020403040E1F700C000008D810E942D0C54
:101B400079CF898186958695837069F0813009F017
:101B500071CF8D8199819370111102C090E080E066
:101B60000E946E0A67CF8D8199819370111102C016
:101B700090E080E00E94580A5DCF8D81112329F00A
:101B80000E946A060E942C0755CF0E94B306FACF26
:101B90008981837009F050C011114CCF2D8122959D
:101BA00026952770220F220F4D814F7050E070E074
:101BB00060E0022E04C0440F551F661F771F0A9471
:101BC000D2F70D8180E090E0DC0104FF0FC08FE0D0
:101BD00090E0A0E0B0E004C0880F991FAA1FBB1FCF
:101BE0002A95D2F780959095A095B0951981169574
:101BF000169513701D838C019D01042B152B262B2C
:101C0000372B09831A832B833C831D8169817A8159
:101C10008B819C81123051F0133059F0113019F042
:101C20000E940B1307CF0E94E31204CF0E943313CC
:101C300001CF0E94E112FECE112309F448C00981B0
:101C400000FFF8CE2D81229526952770220F220FB6
:101C50004D814F7050E070E060E0022E04C0440FF0
:101C6000551F661F771F0A94D2F70D8180E090E020
:101C7000DC0104FF0FC08FE090E0A0E0B0E004C002
:101C8000880F991FAA1FBB1F2A95D2F780959095A0
:101C9000A095B09519811695169513701D838C012A
:101CA0009D01042B152B262B372B09831A832B839D
:101CB0003C831D8169817A818B819C81123071F016
:101CC000133079F0113039F00E945214B3CE1981DB
:101CD00011FFB0CEB7CF0E942A14ACCE0E947A1466
:101CE000A9CE0E945D13A6CE09810F70098311232E
:101CF00029F0802F0E9493138D81EFCE8D810E9459
:101D0000A90C89810E94C41395CE2D81223FA1F197
:101D100060F4203FE1F0213F41F1112309F445C077
:101D200001116FCE89818F7124C03D81333F49F10C
:101D3000343F99F7112379F109810F710983802FBD
:101D40000E94931363E089810E94191673CE1123B8
:101D500041F0053008F06ECE89818F710E94F91331
:101D600069CE063008F066CEF7CF89818F711123D6
:101D700049F20E9493135ECE89818F711123C9F3BA
:101D8000C1CF112329F089818F710E946E1352CE29
:101D90000E9469134FCE81E00E942E16023008F493
:101DA00049CE82E00E942E1645CE002361F01D81AF
:101DB000193309F0C2CE2FEF37EE83E021503040C7
:101DC0008040E1F7B8CE89818F719CCF49814F70F7
:101DD0006D81C6010E94B4020E9453122BCE49812C
:101DE0004F706D81C6010E94B70224CE0F900F90F4
:101DF0000F900F900F90DF91CF911F910F91FF9057
:101E0000EF90DF90CF90BF90AF9008950F931F9306
:101E1000CF93DF93EC01688179818A810E94451517
:101E20008C010E94A2140E94E012B801CE01DF9141
:101E3000CF911F910F910C94B00CCF93DF93EC01D5
:101E4000988189812B813C81232B19F089238F3F35
:101E500059F4DF91CF910895CE010E94060FCE0173
:101E6000DF91CF910C943002CE010E945B02811170
:101E7000F3CF0E948D15882361F38A81882349F36B
:101E800082E0DF91CF910C942E1690E080E00E94CA
:101E9000580A90E080E00E946E0A0E94B6150E94E7
:101EA000C7150E94E3150E9457080C942C070E9446
:101EB0007D150C94450F0E94A5150C94570F282FE3
:101EC000892F82958F70903C80F48A30B0F48430F2
:101ED00020F4823090F480E008958630E1F781E0CC
:101EE000283E88F0213FB9F70EC08C3011F08F30BA
:101EF00091F793FB882780F9089581E0203F39F01E
:101F000018F4283E40F70895243F29F7FCCF0895A0
:101F10000E9439150C945F0FCF93DF9300D000D04F
:101F20000F92CDB7DEB70F900F900F900F900F90DC
:101F3000DF91CF910895CF93DF9300D000D000D0F0
:101F4000CDB7DEB726960FB6F894DEBF0FBECDBF75
:101F5000DF91CF9108951F93CF93DF93E091B60166
:101F600016E08091B7018E1304C0DF91CF911F91CD
:101F70000895CE2FD0E01E9FF0011124E854FE4FAB
:101F80004081518162817381848195810E949B0F80
:101F90002196EC2FE770E5CF4091E8015091E901DF
:101FA0006091EA017091EB018091EC019091ED015B
:101FB0000C949B0F1F93CF93DF938091ED01807F53
:101FC000A9F48091EA01882389F08091B601C0913B
:101FD000B7017091E8016091E901A091EB01B09126
:101FE000EC01D62FD72316E0C81304C0DF91CF91A0
:101FF0001F91089590E0109711F0DF3F19F40196BA
:102000008770F2CF189F9001199F300D1124F901AC
:10201000E854FE4F41816413F2CF40814713EFCF64
:1020200042814111ECCF438154814A1B5B0B483CF8
:10203000510528F78091ED018F7080618093ED014B
:10204000F901E354FE4F80818F708061808388EEB8
:1020500091E00E941D0FDF91CF911F910C94AB0F67
:10206000AF92BF92CF92DF92EF92FF920F931F93A6
:10207000CF93DF93CDB7DEB72B970FB6F894DEBFC3
:102080000FBECDBF8C0185E0F801DE0117960190EF
:102090000D928A95E1F7F801E28030812181C380B9
:1020A000D48088EEA82E81E0B82E9091E80140916E
:1020B000E9016091EB017091EC016115710529F066
:1020C000892F84238F3F09F041C1EE2009F44DC1CF
:1020D0008F8198850E94880FF82E882309F445C1C6
:1020E00086E0F801A8EEB1E001900D928A95E1F743
:1020F00088EE91E00E94970B0E94DA0F24C1809134
:10210000ED01582F507F683C710508F07AC05111DD
:10211000B5C0FE2C241324C0931322C0E11020C0AC
:102120008F7080618093ED010E94CC0F88EE91E06A
:102130000E941D0F8091ED01F80185838F2D2B9654
:102140000FB6F894DEBF0FBECDBFDF91CF911F91C8
:102150000F91FF90EF90DF90CF90BF90AF900895D8
:10216000CD2829F0822F83238F3F09F084C080E09F
:10217000F82FF170DF2EE091B6014091B70156E0E3
:1021800080FD1CC0EE20D1F28091ED018160809332
:10219000ED01F12CD3CF8E2F90E05E9FF001112442
:1021A000E854FE4F6181261306C06081361303C0D8
:1021B00062816E11E7CF0196E82FE770E413EBCF51
:1021C0008F8198850E943915292F22952F70903282
:1021D00060F0225F2F70223078F49F7051F0F80188
:1021E0009581907F31F4D12C0AC09F7011F0882323
:1021F000D1F3805E8830B8F3C8010E941D0FFD2C1A
:102200009DCF51116EC04F81588569857A858B8528
:102210000E948C0F88EE91E00E941D0F86E0F50170
:1022200011928A95E9F70E94CC0FB3CF86E0F801AE
:10223000A8EEB1E001900D928A95E1F77FCF8F81F2
:1022400098850E94880F81113DC08091ED018160C9
:102250008093ED01C8010E941D0F70CF4F815885FA
:1022600069857A858B850E948C0F86E0F501119235
:102270008A95E9F768C081E08E257ACF241306C0DD
:10228000931304C0F801EE2009F451C08F819885A2
:102290000E94880F882309F468C0EE2009F465C005
:1022A0008091ED01803270F02091E8013091E901D8
:1022B0003A8329831B82DD82CC828E83CE010196F4
:1022C0000E941D0F86E0F801A8EEB1E001900D928A
:1022D0008A95E1F70E94DA0F0E94CC0FFF24F39455
:1022E0002DCF2413D3CF9313D1CFE110CFCFF8014B
:1022F0008583C8010E941D0F86E0F50111928A9521
:10230000E9F71CCF24139BCF931399CF8091ED0154
:1023100080FD8CCF982F907F09F488CFF8018583BA
:10232000903F31F0982F907F905F8F70892B85833D
:10233000C8010E941D0F86E0F801A8EEB1E00190EF
:102340000D928A95E1F70E94CC0FF8CEF090EA0149
:10235000F601E61BF70BBF01F110D1CE683C710509
:1023600008F07CCFFE2CE110CDCFC8010E941D0FDC
:10237000B5CF1F93CF93DF93CDB7DEB72C970FB6B2
:10238000F894DEBF0FBECDBF4F83588769877A8729
:102390008B879C87CE0107960E943010882369F0B6
:1023A0008A859B85892B39F058854F81852F842319
:1023B0008F3F09F071C016E05FC086E0FE013796DE
:1023C000DE01119601900D928A95E1F78F81988533
:1023D0002091B7014091B6016A857B85672B59F33F
:1023E00089238F3F41F330E0C90101968770992717
:1023F0004817190671F40E945B0F1092B7011092F2
:10240000B60186E0E8EEF1E0DF011D928A95E9F77A
:10241000D2CF96E0929FD001939FB00D1124A85483
:10242000BE4FFE01319601900D929A95E1F780938F
:10243000B7010E94AB0FBFCF819FC0011124885408
:102440009E4F0E9430108823E9F0E091B6011E9F54
:10245000F0011124E854FE4F408151816281738163
:10246000848195810E949B0F8091B60190E0019636
:10247000877099278093B6018091B6019091B7013A
:102480008913DACF2C960FB6F894DEBF0FBECDBFFE
:10249000DF91CF911F91089569857A858B859C8501
:1024A0000E949B0F88CFEF92FF920F931F93CF93C1
:1024B000DF938C01892B89F0F12CEE24E394E80161
:1024C0002196F8018491843709F458C0A0F4823031
:1024D00009F43FC048F48130D1F0DF91CF911F91D2
:1024E0000F91FF90EF9008959CEF980F9037A8F709
:1024F0000E949C0B0AC0853709F44EC09CE7980FD8
:10250000903758F78F770E942D0C8E0116C00E5F02
:102510001F4FFE01849190E2980F983060F487700D
:10252000FE2D01C0FF0F8A95EAF78F2F0E94B91583
:102530000E94E31502C00E949C0B8F2D882309F492
:10254000BECFEFE9FFE03197F1F700C00000815006
:10255000F5CF0E5F1F4FFE01849190E2980F9830E7
:1025600050F48770FE2D01C0FF0F8A95EAF78F2F78
:102570000E94BF15DDCF0E942D0CDFCF0E5F1F4FD5
:10258000FE01C491CC23C9F28FE99FE00197F1F7D6
:1025900000C00000C150F6CF0E5F1F4FFE01F49047
:1025A000CCCF08950C94D1120E94D21260932402D1
:1025B0007093250280932602909327020C94450F76
:1025C00008950C94D412CF93DF9300D000D0CDB7F0
:1025D000DEB769837A838B839C83809124029091F8
:1025E0002502A0912602B091270229813A814B81D0
:1025F0005C81282B392B4A2B5B2B29833A834B8315
:102600005C83CA01B9010F900F900F900F90DF917A
:10261000CF910C94D412CF93DF9300D000D0CDB7DC
:10262000DEB769837A838B839C83809124029091A7
:102630002502A0912602B091270229813A814B817F
:102640005C81282339234A235B2329833A834B83E4
:102650005C83CA01B9010F900F900F900F90DF912A
:10266000CF910C94D412CF93DF9300D000D0CDB78C
:10267000DEB769837A838B839C8380912402909157
:102680002502A0912602B091270229813A814B812F
:102690005C81282739274A275B2729833A834B8384
:1026A0005C83CA01B9010F900F900F900F90DF91DA
:1026B000CF910C94D4120C94E5010E945B136093AB
:1026C00020027093210280932202909323020C94A3
:1026D000450F60E070E0CB010C945D130F931F93E6
:1026E000CF93DF9300D000D0CDB7DEB741E050E00C
:1026F00060E070E08A019B0104C0000F111F221FDF
:10270000331F8A95D2F709831A832B833C83C9012F
:10271000B8010F900F900F900F90DF91CF911F9104
:102720000F910C945D130F931F93CF93DF9300D001
:1027300000D0CDB7DEB741E050E060E070E004C00B
:10274000440F551F661F771F8A95D2F7809120028C
:1027500090912102A0912202B09123028A019B0153
:10276000082B192B2A2B3B2B09831A832B833C83A1
:10277000C901B8010F900F900F900F90DF91CF918A
:102780001F910F910C945D130F931F93CF93DF93C1
:1027900000D000D0CDB7DEB741E050E060E070E09F
:1027A00004C0440F551F661F771F8A95D2F74095C6
:1027B0005095609570958091200290912102A09192
:1027C0002202B09123028A019B01082319232A23A4
:1027D0003B2309831A832B833C83C901B8010F90E3
:1027E0000F900F900F90DF91CF911F910F910C944C
:1027F0005D130F931F93CF93DF9300D000D0CDB71D
:10280000DEB741E050E060E070E004C0440F551FC7
:10281000661F771F8A95D2F780912002909121023E
:10282000A0912202B09123028A019B010827192757
:102830002A273B2709831A832B833C83C901B801CC
:102840000F900F900F900F90DF91CF911F910F91EC
:102850000C945D13CF93DF9300D000D0CDB7DEB7DB
:1028600069837A838B839C838091200290912102DB
:10287000A0912202B091230229813A814B815C818F
:10288000282B392B4A2B5B2B29833A834B835C8380
:10289000CA01B9010F900F900F900F90DF91CF9167
:1028A0000C945D13CF93DF9300D000D0CDB7DEB78B
:1028B00069837A838B839C8380912002909121028B
:1028C000A0912202B091230229813A814B815C813F
:1028D000282339234A235B2329833A834B835C8350
:1028E000CA01B9010F900F900F900F90DF91CF9117
:1028F0000C945D13CF93DF9300D000D0CDB7DEB73B
:1029000069837A838B839C8380912002909121023A
:10291000A0912202B091230229813A814B815C81EE
:10292000282739274A275B2729833A834B835C83EF
:10293000CA01B9010F900F900F900F90DF91CF91C6
:102940000C945D1308959295907FE92FE80F87709E
:1029500041E001C0440F8A95EAF7E695E695E695D1
:1029600085E0E89FF0011124E251FE4F30E020E0C5
:1029700070E05191DF011197CB01022E02C09695B4
:1029800087950A94E2F781708195852784238527AE
:102990008C932F5F3F4F2530310559F70895E92F6C
:1029A000E295E07FE80F982F9770E695E695E6951B
:1029B00085E0E89FF0011124E251FE4F50E040E035
:1029C00080E0219130E0092E02C0369527950A94C7
:1029D000E2F721703327042E01C0220F0A94EAF790
:1029E000822B4F5F5F4F4530510559F70895BF92D5
:1029F000CF92DF92EF92FF920F931F93CF93DF93CB
:102A00008C01C0902002D0902102E0902202F09030
:102A100023028091240290912502A0912602B09178
:102A20002702C82AD92AEA2AFB2ACFE1D0E0BC2E05
:102A3000D701C6010C2E04C0B695A795979587952A
:102A40000A94D2F780FD0EC0219788F7B12C8B2D08
:102A5000DF91CF911F910F91FF90EF90DF90CF907A
:102A6000BF900895B8018C2F0E94D502019761F3A1
:102A7000EECFCF93DF93D82FC92F0E94F7146D2F7D
:102A80007C2FDF91CF910C94D5021F93CF93DF93CE
:102A9000162FD72F9091B501992339F0862F972FB4
:102AA000DF91CF911F910C943915882391F0862FD7
:102AB000972F0E94F714C82F682F812F9D2F0E94F7
:102AC000A314612F7D2F8C2FDF91CF911F910C9438
:102AD000D502862F972F0E94CF14C82FF2CF682FD0
:102AE00080910801909109010C944517682F8091FD
:102AF0000801909109010C94471780910801909169
:102B000009010C9449178091280285958595859532
:102B100008958091280287700895909128029770F7
:102B200081E009F480E00895809134020895909145
:102B30003402982B909334020895982F90958091A9
:102B40003402892380933402089510923402089548
:102B500090913302982B909333020895982F90957B
:102B600080913302892380933302089510923302B7
:102B7000089590913202982B909332020895982FE5
:102B800090958091320289238093320208951092A9
:102B90003202089580912902089508950C94CD156C
:102BA00090912902981721F0809329020C94CE1558
:102BB000089580912902882329F01092290280E04B
:102BC0000C94CE150895E0910801F09109018091CF
:102BD00034028083E0910801F09109018081909195
:102BE0003302892B8083E0910801F09109018081F3
:102BF00090913202892B808390912902992381F050
:102C0000E0910801F09109018081892B80838091F6
:102C10000801909109010E94F91681110E94D915AD
:102C200080910801909109010C943E0A08950C943A
:102C3000161698E0899F90011124622B6093280258
:102C40000E949313809128028595859585950C9413
:102C500017161092280280E00C9417169091280203
:102C60008095892380932802282F277071F4282FBC
:102C7000082E000C330B9217130639F085958595B5
:102C800085950E94C4130C942916089580E0089538
:102C90006FEF7FEF90E080E00C94AE1F90E080E05B
:102CA0000E948A1F9C0181E02B3E3E4F09F080E08C
:102CB000089582E090E00C94821F83E090E00C94F1
:102CC000821FCF9384E090E00E94821FC82F81E290
:102CD00090E00E94821F982F8C2FCF910895CF9360
:102CE000682FC92F84E090E00E94901F6C2F81E232
:102CF00090E0CF910C94901FAB01BC018FE090E06D
:102D00000C94A21FAB01BC0183E190E00C94A21FC4
:102D100060E070E0CB010C94821660E070E0CB01C3
:102D20000E947C160C9488166BEE7EEF90E080E09B
:102D30000E94AE1F60E082E090E00E94901F60E081
:102D400083E090E00E94901F1092240210922502CE
:102D5000109226021092270260E084E090E00E9428
:102D6000901F60E081E290E00E94901F60E085E0AB
:102D700090E00E94901F60E086E090E00E94901F2B
:102D80006FEF87E090E00E94901F40E050E0BA01B2
:102D900088E090E00E94A21F60E08DE090E00E9439
:102DA000901F40E050E0BA0188E190E00E94A21F2D
:102DB00060E087E190E00E94901F40E050E0BA019F
:102DC0008CE190E00E94A21F60E080E290E00E940F
:102DD000901F40E050E0BA0188E190E00E94A21FFD
:102DE0000C948D160C949416682F8EE090E00C9441
:102DF000901FAC019C012E5F3F4F485F5F4F80E00A
:102E00002417350709F40895F90191919F01992339
:102E1000B9F38F5FF5CF9C01662351F0FC01329628
:102E2000285F3F4F8191861729F0E217F307D1F70A
:102E300080E0089581E008959C01FC0132968FEFB7
:102E400090E04191461751F08F3F19F4411101C0B4
:102E5000892F9F5F9630A9F78F3F09F40895280FB7
:102E6000311D87FD3A95F901628308959C01FC01AB
:102E70003296285F3F4F8191861303C0DF0111977F
:102E80001C92E217F307B9F708950C941C170C94E1
:102E90003617FC01329686E0DF011D928A95E9F72C
:102EA0000895089508950C94521780915F0284301C
:102EB00049F10E94531780E00E94AC021092360242
:102EC00088E190E020E40FB6F894A8958093600024
:102ED0000FBE2093600083B7817F846083BF83B778
:102EE000816083BF7894889583B78E7F83BF0FB648
:102EF000F894A8958091600088618093600010929A
:102F000060000FBE08950895CF930E9451170E944C
:102F100029050E948317C0E08C2F0E94CA04892BC8
:102F200031F4CF5FC530C1F780E0CF91089581E0E3
:102F3000FCCF08950C9499170E945B0F0E94320AEF
:102F40000E94AC020C949A171F921FB61F92112474
:102F50008F939F93AF93BF9380913602811113C0DB
:102F60008091550290915602A0915702B09158025B
:102F70004196A11DB11D8093550290935602A093D6
:102F80005702B0935802BF91AF919F918F911F90BC
:102F90001FBE1F90189582E084BD93E095BD9AEF07
:102FA00097BD80936E0008952FB7F89480915502D5
:102FB00090915602A0915702B09158022FBF0895E8
:102FC000CF93DF9300D000D0CDB7DEB78FB7F894A2
:102FD000209155023091560240915702509158026B
:102FE00029833A834B835C838FBF69817A818B818C
:102FF0009C810F900F900F900F90DF91CF910895CB
:103000009C014FB7F8948091550290915602A0917F
:103010005702B09158024FBF821B930B08957894CA
:103020001F921FB61F9211248F939F93AF93BF934C
:103030008091550290915602A0915702B09158028A
:103040000196A11DB11D8093550290935602A09345
:103050005702B0935802BF91AF919F918F911F90EB
:103060001FBE1F90189581E08093E00080E280935E
:10307000D8001092C9008FE19EE40197F1F700C0DB
:10308000000087E090EBDC01809368029093690276
:10309000A0936A02B0936B0288E19CE00FB6F894AB
:1030A000A895809360000FBE90936000FFCF90932F
:1030B00087018093860108950C9448160E94290583
:1030C0002FEF86E791E0215080409040E1F700C06B
:1030D00000000E94290580E00E94CA0480FF04C00D
:1030E0000E945C180C9433180895CF93DF9300D09E
:1030F00000D0CDB7DEB70E944E16811102C00E94EB
:10310000F2160E945916809335020E946116909320
:103110005A02809359020E945D16282F30E050E039
:1031200040E0CA01B9010E94E11280912002909111
:103130002102A0912202B091230289839A83AB835A
:10314000BC83BC01CD010F900F900F900F90DF91C9
:10315000CF910C945B1380913F020895CF93DF933E
:1031600000D00F92CDB7DEB790915F02943019F581
:1031700089836A837B8382E08093E9008FEF90915B
:10318000E800815095FD06C095ED9A95F1F7000095
:103190008111F5CF8091E80085FF0DC050E040E03F
:1031A00063E070E0CE0101960E94C91A8091E800A8
:1031B0008E778093E8000F900F900F90DF91CF9162
:1031C0000895BC0184E00C94AE18BC0183E00C941B
:1031D000AE1822E02093E9002FEF3091E800215053
:1031E00035FD06C035ED3A95F1F700002111F5CF18
:1031F0002091E80025FF0BC050E040E066E070E061
:103200000E94C91A8091E8008E778093E8000895A3
:10321000CF93DF93D82FC92F81E08093E9008FEF00
:103220009091E800815095FD06C095ED9A95F1F7D3
:1032300000008111F5CF8091E80085FF16C050E0B5
:1032400040E068E070E08D2F9C2F0E94C91A8091A9
:10325000E8008E778093E80088E0ED2FFC2FA7E34D
:10326000B2E001900D928A95E1F7DF91CF91089538
:1032700080915E02811109C00E94511C0E94AE1C07
:103280008091E20084608093E200089510925E02D3
:10329000089508950895089542E061EC81E00E9448
:1032A000CD1B42E261EC82E00C94CD1B8091610267
:1032B000893089F148F4823009F49DC0833009F4E3
:1032C00058C0813041F008958A3009F484C08B30B1
:1032D00009F46AC0089580916002813A09F048C0FB
:1032E0008091E800877F8093E8008091640290914C
:1032F0006502892B61F468E087E392E070E00E9448
:10330000181B8091E8008B778093E800089560E0B7
:1033100090E080E0F3CF80916002813249F58091A6
:10332000640290916502029718F58091E800877F0A
:103330008093E8008091E80082FF16C09091F3002E
:103340008091F200029729F48091F1008B7F813007
:1033500021F48091F10080933F028091E8008B7707
:103360008093E8000C94011C80915F028111E2CFF0
:10337000089580916002813AD9F78091640290911A
:103380006502892BA9F78091E800877F8093E80088
:103390008091E80080FFFCCF809114018093F100C0
:1033A0008091E8008E77DCCF80916002813201F756
:1033B0008091640290916502892BD1F68091E8009A
:1033C000877F8093E8000E94011C809162028093B5
:1033D00014010C945B0F80916002813249F6809158
:1033E000E800877F8093E8000E94011C80916302BF
:1033F00080934002089580916002813A09F0B8CF2D
:103400008091E800877F8093E8008091E80080FF4A
:10341000FCCF80914002C2CF84B7877F84BF0FB6B4
:10342000F894A89580916000886180936000109264
:1034300060000FBE80E890E00FB6F89480936100C2
:10344000909361000FBE0E94A20A0E94511C0E942C
:10345000AE1C8091E20084608093E20078940E9428
:103460003A1F0E94B20A8AE091E00E942D0A8091E0
:103470005F028530A9F00E94BA0A0E94B00A0E9439
:10348000B10AF5CF0E94551780915D02882341F063
:103490000E948417882321F00E94B31A0E945B0FB8
:1034A00080915F02853071F30E949C17E4CF0C94E9
:1034B000591AFC01CB01DA012F2F332723303105B4
:1034C000D1F070F42130310509F43EC022303105CD
:1034D00069F48BE390E02CE232E02D933C93089565
:1034E00021323105E9F02232310521F190E080E00E
:1034F00030E020E0F2CFCF019927E13059F082305F
:10350000910559F0E8E2F2E0892B81F7849190E08F
:103510009F01E3CFE6E0F2E0F9CFECEEF1E0F6CF89
:10352000892BB9F06130710509F789E090E027E552
:1035300032E0D3CF892B91F061307105B9F68BE77A
:1035400090E029E732E0C9CF82E190E027E632E05F
:10355000C4CF89E090E02EE332E0BFCF80E490E07A
:1035600024EF32E0BACF80E189BD82E189BD09B4A0
:1035700000FEFDCF8091D8008F7D8093D800809190
:10358000E00082608093E0008091E00081FDFCCF4C
:103590000895AF92BF92CF92DF92FF920F931F9345
:1035A000CF93DF936C01EB018A010E94201CF82E5F
:1035B000811123C00115110539F0F8018081918135
:1035C000C81BD90BC80ED91EB12CA12C2097A9F06D
:1035D0008091E80085FD22C08091E8008E7780937D
:1035E000E80001151105A1F0F801808191818A0D93
:1035F0009B1D9183808385E0F82E8F2DDF91CF91E5
:103600001F910F91FF90DF90CF90BF90AF900895E2
:103610000E94201C8823D1F2F82EEFCFF601819171
:103620006F018093F1002197FFEFAF1ABF0ACECF51
:10363000FC01CB0120916602309167022617370703
:1036400090F0009729F42091E8002E772093E8006D
:1036500040E0009751F4411108C08091E80082FFDA
:1036600031C080E00895C901F3CF20915F02222389
:10367000A9F12530A9F12091E80023FD2DC020916A
:10368000E80022FDEACF2091E80020FFE2CF309150
:10369000F3002091F200009719F02830310558F01E
:1036A00041E02830310509F040E02091E8002E7714
:1036B0002093E800CECF41914093F10001972F5F16
:1036C0003F4FE9CF80915F02882341F0853041F080
:1036D0008091E80083FFC1CF81E0089582E00895E2
:1036E00083E00895FC01CB012091660230916702CE
:1036F0002617370790F0009729F42091E8002E77DD
:103700002093E80040E0009751F4411108C08091F7
:10371000E80082FF32C080E00895C901F3CF209114
:103720005F022223B1F12530B1F12091E80023FDA1
:103730002EC02091E80022FDEACF2091E80020FF72
:10374000E2CF3091F3002091F200009719F0283079
:10375000310558F041E02830310509F040E0209172
:10376000E8002E772093E800CECF44914093F100FB
:10377000319601972F5F3F4FE8CF80915F028823FA
:1037800041F0853041F08091E80083FFC0CF81E0B7
:10379000089582E0089583E00895982F973028F0E7
:1037A0008F708093E90081E008959093E900242FC1
:1037B000762F50E0981731F07091EC002091ED00D9
:1037C0005091F00021FD02C09F5FE8CF3091EB00E7
:1037D0003E7F3093EB003091ED003D7F3093ED0064
:1037E0003091EB0031603093EB007093EC0020934C
:1037F000ED005093F0002091EE0027FDE5CF80E032
:1038000008958091600287FF13C08091E80082FFD5
:1038100006C08091E8008B778093E80004C0809117
:103820005F028111F2CF089580915F028823D9F35E
:103830008091E80080FFF8CF8091E8008E77ECCF90
:103840002091E4003091E50095E6A9012091EC007B
:10385000822F817020FF06C08091E80080FF06C0A3
:1038600080E008952091E80022FD1AC080915F0257
:10387000882389F0853089F08091EB0085FD0FC0A9
:103880002091E4003091E50042175307F9F291507E
:10389000E1F684E0089582E0089583E0089581E0F0
:1038A00008950E94BF1C0E94C71CE0EEF0E08081DA
:1038B00081608083E8EDF0E080818F77808319BCA0
:1038C000A7EDB0E08C918E7F8C9380818F7E80837A
:1038D00010925E0208950F931F93CF93DF930E947F
:1038E000BF1C0E94C71CC8EDD0E088818F778883F9
:1038F00088818068888388818F7D888319BC109235
:103900005F0210925B0210925D0210925C0200EE68
:1039100010E0F80180818B7F8083888181608883BB
:1039200042E060E080E00E94CD1BE1EEF0E08081AB
:103930008E7F8083E2EEF0E08081816080838081F1
:1039400088608083F80180818E7F80838881806198
:103950008883DF91CF911F910F910895E8EDF0E0FA
:1039600080818F7E8083E7EDF0E0808181608083BD
:1039700084E082BF81E080935E020C946B1CE8EDD2
:10398000F0E080818E7F80831092E2000895109293
:10399000DA001092E10008951F920F920FB60F9275
:1039A00011242F933F934F935F936F937F938F9344
:1039B0009F93AF93BF93EF93FF938091E10082FFBA
:1039C0000BC08091E20082FF07C08091E1008B7FF5
:1039D0008093E1000E94391F8091DA0080FF19C0B6
:1039E0008091D80080FF15C08091DA008E7F80938F
:1039F000DA008091D90080FF94C080E189BD82E126
:103A000089BD09B400FEFDCF81E080935F020E9472
:103A100038198091E10080FF19C08091E20080FF99
:103A200015C08091E2008E7F8093E2008091E200D9
:103A300080618093E2008091D80080628093D800FA
:103A400019BC85E080935F020E944A198091E100D1
:103A500084FF29C08091E20084FF25C080E189BDF8
:103A600082E189BD09B400FEFDCF8091D8008F7D31
:103A70008093D8008091E1008F7E8093E100809157
:103A8000E2008F7E8093E2008091E200816080936B
:103A9000E20080915B02882309F449C084E08093AE
:103AA0005F020E944B198091E10083FF29C0809141
:103AB000E20083FF25C08091E100877F8093E100D1
:103AC00082E080935F0210925B028091E1008E7F22
:103AD0008093E1008091E2008E7F8093E2008091EC
:103AE000E20080618093E20042E060E080E00E94BA
:103AF000CD1B8091F00088608093F0000E944919EE
:103B0000FF91EF91BF91AF919F918F917F916F91B5
:103B10005F914F913F912F910F900FBE0F901F908B
:103B2000189519BC10925F020E94461972CF8091BD
:103B3000E30087FD02C081E0B2CF83E0B0CF1F92E7
:103B40000F920FB60F921124FF920F931F932F9392
:103B50003F934F935F936F937F938F939F93AF9315
:103B6000BF93CF93DF93EF93FF9309EE10E0F8013B
:103B70008081C091EC00C795CC27C7958F70FC2E33
:103B8000F82A1082C0EFD0E08881877F88837894FC
:103B90000E94E81DF8011082888188608883CF2DFB
:103BA000CF70C083FF91EF91DF91CF91BF91AF9123
:103BB0009F918F917F916F915F914F913F912F9145
:103BC0001F910F91FF900F900FBE0F901F901895AF
:103BD0001F93CF93DF93CDB7DEB7AA970FB6F894B4
:103BE000DEBF0FBECDBF80E692E0FC0101962091C2
:103BF000F100208322E088369207B9F70E94561917
:103C00008091E80083FF1DC1809160029091610264
:103C10009A3008F016C1E92FF0E0EC5FFF4D0C94EC
:103C2000681F803899F0823809F00BC180916402D6
:103C30008F70873008F005C18093E9008091EB0018
:103C400085FB882780F91092E90006C080915C020C
:103C500090915D02911182609091E800977F90931E
:103C6000E8008093F1001092F1008091E8008E77D7
:103C7000E4C0882309F4D2C0823009F0E2C0809108
:103C800062028111D5C0809164028F702FEF280FDE
:103C9000263008F0D6C08093E9002091EB0020FF89
:103CA000C7C0933031F48091EB0080628093EB00C9
:103CB000BFC09091EB0090619093EB0021E030E069
:103CC00001C0220F8A95EAF72093EA001092EA00D9
:103CD0008091EB008860EACF8111B3C0109162023D
:103CE0001F778091E3008078812B8093E30080919F
:103CF000E800877F8093E8000E94011C8091E80023
:103D000080FFFCCF8091E30080688093E30082E035
:103D1000111183E080935F0294C08058823008F0D4
:103D200090C080916202909163028C3D23E09207E3
:103D300099F583E08A838AE289834FB7F894DE019C
:103D4000139620E03EE051E2E32FF0E0509357005D
:103D5000849120FF03C082958F703F5F8F708A30FF
:103D6000C8F0895C90E08D939D932F5F243161F7BB
:103D70004FBF8091E800877F8093E8006AE270E09F
:103D8000CE0101960E94181B8091E8008B778093EA
:103D9000E80057C0805DE6CF6091640270916502D3
:103DA000AE014F5F5F4F0E94571ABC01892B09F487
:103DB00048C08091E800877F8093E80089819A81DC
:103DC0000E94721BE1CF8038E1F58091E800877F87
:103DD0008093E80080915B028093F10046CF8111CF
:103DE00030C090916202923060F58091E800877F48
:103DF0008093E80090935B020E94011C80915B021B
:103E0000882311F084E005C08091E30087FDFACF9C
:103E100081E080935F020E944C1913C0809162027E
:103E2000813079F481E0933009F080E080935D0285
:103E30001092E9008091E800877F8093E8000E945B
:103E4000011C8091E80083FF0AC08091E800877F11
:103E50008093E8008091EB0080628093EB00AA964B
:103E60000FB6F894DEBF0FBECDBFDF91CF911F918B
:103E700008950895CF9380915F02882399F08091EF
:103E8000E900C091EC00C795CC27C7958F70C82B6F
:103E90001092E9008091E80083FD0E94E81DCF7038
:103EA000C093E900CF91089597FB072E16F4009474
:103EB00007D077FD09D00E946E1F07FC05D03EF4A5
:103EC000909581959F4F0895709561957F4F0895C6
:103ED000EE0FFF1F0590F491E02D0994AA1BBB1B68
:103EE00051E107C0AA1FBB1FA617B70710F0A61BFA
:103EF000B70B881F991F5A95A9F780959095BC011B
:103F0000CD010895F999FECF92BD81BDF89A992708
:103F100080B50895A8E1B0E042E050E00C94B61FEF
:103F2000262FF999FECF92BD81BDF89A019700B472
:103F3000021639F01FBA20BD0FB6F894FA9AF99A12
:103F40000FBE08950396272F0E94911F0E94901F75
:103F5000252F0E94911F242F0C94911F0196272F2B
:103F60000E94911F0C94901FDC01CB01FC01F99978
:103F7000FECF06C0F2BDE1BDF89A319600B40D92B5
:103F800041505040B8F70895F894FFCF7306790672
:103F90007C06820697069706970697069706970669
:103FA0009706970685068A068E069406A506AB0632
:103FB000AF06730979097D098B098F099309970960
:103FC0009D09A509A909AD09B109BD09C109C5091D
:103FD000C909CF09ED09D7098709B509B909A109A7
:103FE000D309E309F609FA09EA0CEA0C4C0D4C0D69
:103FF000A10DBD0D1A0D1A0DC80D740E850E850E7E
:10400000E60E1A0D1A0DEF0E111E391E211F391E54
:0C401000211F6C1E8D1E211FE31EEF1EE1
:10401C002808641E140A321E2A02AB180819E91863
:10402C00E518E11801E200E900EA00B500B600B7B6
:10403C0000CD008301CC008A01920194012102235E
:10404C000224022502260227022A02B300B4006FC2
:10405C00007000F1F4F531323394929395969734C5
:10406C00353666F0C6913067E200E900EA00B5002B
:10407C00B600B700CD008301CC008A0192019401F7
:10408C002102230224022502260227022A02B3005F
:06409C00B4006F0070008B
:00000001FF
