:100000000C94E3050C942A060C942A060C942A06F8
:100010000C942A060C942A060C942A060C942A06A0
:100020000C942A060C942A060C94CF310C94A53219
:100030000C9484310C942A060C942A060C942A06FB
:100040000C942A060C9413310C942A060C942A065C
:100050000C9415310C94AB310C942A060C942A069E
:100060000C942A060C942A060C942A060C942A0650
:100070000C942A060C942A060C942A060C942A0640
:100080000C942A060C942A060C942A060C942A0630
:100090000C942A060C942A060C942A060C942A0620
:1000A0000C942A060C942A060C942A0605010902CF
:1000B000A10185020901A100050919012905150001
:1000C00025019505750181029501750381010501E1
:1000D000093009311581257F950275088106093897
:1000E0001581257F950175088106050C0A380215D2
:1000F00081257F950175088106C0C005010980A191
:1001000001850319012AB700150126B7009501756D
:10011000108100C0050C0901A101850419012AA064
:1001200002150126A002950175108100C005010984
:1001300006A1018505050719E029E71500250195A8
:1001400008750181020507190029EF1500250195A1
:10015000F0750181020508190129059505750191C0
:1001600002950175039101C00660FF0961A10109B3
:1001700062150026FF0095207508810209631500AD
:1001800026FF00952075089102C005010906A1010E
:10019000050719E029E71500250195087501810279
:1001A0009501750881010507190029FF150026FF33
:1001B0000095067508810005081901290595057542
:1001C000019102950175039101C009025B000301D1
:1001D00000A0FA0904000001030101000921110136
:1001E00000012240000705810308000A09040100FC
:1001F000020300000009211101000122220007056D
:100200008203200001070503032000010904020006
:10021000010300000009211101000122BC000705B3
:10022000840320000A1201000200000008FF219947
:10023000AA0200010203011C037600690061006C40
:10024000003A00660036003400630032006200337A
:1002500000630000000E0363007900700068006511
:10026000007200000020036300610062006C006502
:10027000006300610072006400650073006900673C
:10028000006E00730000000403090429001E001F13
:100290000020002100220023002400250026002B3E
:1002A0000014001A000800150017001C0018000CAC
:1002B000001200390004001600070009000A000BB4
:1002C000000D000E000F00E10031001D001B0006B4
:1002D0000019000500110010003600E000E300E204
:1002E0000000002C0000002C002C000000E600277D
:1002F000002D002E002A004C0053005400550056DB
:1003000000000013002F003000310000005F00608B
:100310000061005700000033003400320028000064
:10032000005C005D005E006700000037003800E5FB
:10033000005200000059005A005B0058000000E61F
:100340000001515000510000004F00620063002A7C
:10035000000000005C3A003B003C003D003E003FD6
:10036000004000410042000100BF5CC05CBB5CBCBF
:100370005CBE5CBD5CC15C010001000100010001CC
:100380000001000100010001000100010001000165
:100390000001000100010001000100010001000155
:1003A0000001000100010001000000010000000147
:1003B000000100000001004300440045004C000122
:1003C0000001000100010001000000010001000126
:1003D0000001000000010001000100010000000117
:1003E0000001000100010000000100010001000106
:1003F00000000001000100010001000000010001F7
:1004000000010001000000010001000100010000E6
:1004100000010001000100010000000100010001D5
:1004200000010001000100010001000100010001C4
:1004300000010001000100010001000100010001B4
:1004400000010001000100010001000100010001A4
:100450000001000100010001000100010001000194
:100460000001000100010001000100010001000184
:100470000000000100000001000100000001000177
:100480000001000100010001000100010001000164
:100490000000000100010001000100000001000156
:1004A0000001000100000001000100010001000046
:1004B0000001000100010001000000010001000135
:1004C0000001000000010001000100010000000126
:1004D0000001000100010000000100010001000115
:1004E0000000000100010001000100010001000105
:1004F00000010001000100010001000100010001F4
:1005000000010001000100010001000100010001E3
:1005100000010001000100010001000100010001D3
:1005200000010001000100010001000100010001C3
:1005300000010001000100010000000100000001B5
:1005400000010000000100010001000100010001A4
:100550000001000100010001000000010001000194
:100560000001000000010001000100010000000185
:100570000001000100010000000100010001000174
:100580000000000100010001000100000001000165
:100590000001000100000001000100010001000055
:1005A0000001000100010001000000000000000047
:1005B00000000000000001010203040506080A0C07
:1005C0000F1114181C2024292E33393F464C535B3D
:1005D000626A7179818A929AA2AAB2B9C1C8CFD54A
:1005E000DCE1E7EBF0F4F7FAFCFDFEFFFEFDFCFAC0
:1005F000F7F4F0EBE7E1DCD5CFC8C1B9B2AAA29A13
:10060000928A8179716A625B534C463F39332E2955
:1006100024201C1814110F0C0A08060504030201FB
:100620000100000000000000000000222325262811
:10063000292A2C2D2F3032333536383A3B3D3E4077
:1006400042434547494A4C4E5051535557595A5CBD
:100650005E6062646668696B6D6F71737577797BD4
:100660007D7F81838587898A8C8E90929496989AD3
:100670009C9E9FA1A3A5A7A8AAACAEAFB1B3B4B6E8
:10068000B8B9BBBCBEBFC1C2C3C5C6C7C9CACBCC43
:10069000CDCED0D1D2D2D3D4D5D6D7D7D8D9D9DA16
:1006A000DADBDBDBDCDCDCDCDCDDDDDDDDDCDCDC8B
:1006B000DCDCDBDBDBDADAD9D9D8D7D7D6D5D4D3B3
:1006C000D2D2D1D0CECDCCCBCAC9C7C6C5C3C2C188
:1006D000BFBEBCBBB9B8B6B4B3B1AFAEACAAA8A7E5
:1006E000A5A3A19F9E9C9A98969492908E8C8A899D
:1006F000878583817F7D7B79777573716F6D6B697A
:1007000068666462605E5C5A5957555351504E4C4E
:100710004A4947454342403E3D3B3A3836353332FD
:10072000302F2D2C2A292826252322FFAA7F554049
:1007300000010101010101010101020202020202A4
:100740000202020303030303030303040404040477
:10075000040405050505050606060606070707073E
:100760000708080808090909090A0A0A0B0B0B0CF3
:100770000C0C0D0D0D0E0E0E0F0F0F101011111190
:100780001212131314141515161617171818191911
:100790001A1A1B1B1C1D1D1E1E1F20202122222376
:1007A0002424252626272829292A2B2C2D2D2E2FB7
:1007B00030313232333435363738393A3B3C3D3ECE
:1007C0003F404142434445464748494A4C4D4E4FBD
:1007D00050515354555658595A5B5D5E5F6162647F
:1007E000656668696B6C6D6F7072737577787A7B0C
:1007F0007D7E8082838587888A8C8E8F9193959663
:10080000989A9C9EA0A2A3A5A7A9ABADAFB1B3B582
:10081000B7BABCBEC0C2C4C6C9CBCDCFD1D4D6D85E
:10082000DBDDDFE2E4E7E9EBEEF0F3F5F8FAFDFFFC
:1008300000047F3F1F643214643214783C1E1E147F
:100840000A05FD377A585A000004E6D6B44602007D
:10085000210116000000742FE5A3E0099402935DC6
:10086000003D8889C65436C3174FE4DCCDE2800DC5
:100870005BB1E1BD03E05D1D2E794C52196280B77A
:100880001B8D7F787C358B0E4D22384744F02296A5
:10089000220C07AA7D91C566661B58E359DF98A014
:1008A000D73F27978D83FF81FC6D75194B24730CFF
:1008B000E3BDD6E5427CF5463F8A4BC03CA63EB937
:1008C000ED3BEA643065E381AF69CD8CB4E262ED63
:1008D00020B2AB1F608708D79C943241795BB297F6
:1008E00077ECE61DB1D6B51FBA3D1D0E767AB9CFAD
:1008F000AF0A670FC08326DEEA26C21AE4B660D1CB
:1009000061C7B88881BD488FB5810569B6B5C5F79F
:10091000353AD921868EC51E5BEDC66E131A329507
:1009200028AC85F24766DD2C1D80987F34687A51AB
:10093000813D3F10A8537F8C839A5B155840092C4A
:1009400064984CFB77CCAAE4AD1426DA1048CFDAD1
:100950002FD6F9BCECD3CAF5965A6E73A21171DE8C
:1009600060193362CA0CFC7EC79550AFF4F40AE7F5
:10097000253DE1E06416930D604788FE8F993BA00A
:1009800020FD6D70956EF67461CD410EA6F1BFE24B
:10099000CCF0CF490AC9A2AF91FC72CFAF241B7C27
:1009A000E0CE3E7D5381A2C492D38C7194B7F350B4
:1009B00045E6753063C38138B62B0E4D43C28DF8C2
:1009C000BC4D437255A4863F776EF88F1AAC09115F
:1009D0003DCCCD051E14AE628371CE3A8FE2BDC10F
:1009E0003915DBC3D41044D8295A33079FB29BC0B2
:1009F0002905AC71C1CE2305B4CDCFA552E879EA63
:100A0000A13F4355249B498518D9CF08B4D8013458
:100A1000F5748A994D82A4522E0DE23A6864DFD3B0
:100A200092CFE1BBDC313B912A04AFF5F92D58B3ED
:100A300061883A9902C996CA71409CD90389F0EB42
:100A400035853D2992F309A4CE57951D06889D8DC5
:100A50008DD8D576427143393936A197D7C635F04E
:100A60006429EA2C4D19EB2604DB44E2432B9D7CE0
:100A7000A6F0FA06AFBB14EB6E6C8964C46A8B44B3
:100A8000915E8FA93C0DBFF884DB040E72C12AFA77
:100A900061F85AF21A042F7F4F961560A36CC09C20
:100AA000A7098DA805E1C232D18FD647A17DE49276
:100AB0001C2543B2AC699F023547198ECC04737E66
:100AC000C792F4D0B62AAB53ABC94B336B33D92F93
:100AD0007F714120FE08D4D3BB2BEB9F1018EC880C
:100AE000C77C9BC64A49260F6BA472824BFFA8CED7
:100AF000011CE836000078E0EBE6C71A3256000128
:100B0000AF059513000029F40177B1C467FB02001B
:100B100000000004595A000000000000000000001E
:100B200000000000000000000000000000000000C5
:100B3000000000000000000000007E0F00D4FFFF56
:100B4000FFC70000007800000000000000002A2B12
:100B5000280000000000000000000000000000006D
:100B60000029000000002C1E3420212224342627D6
:100B7000252E362D3738271E1F20212223242526F7
:100B80003333362E37381F0405060708090A0B0CC5
:100B90000D0E0F101112131415161718191A1B1C0D
:100BA0001D2F3130232D350405060708090A0B0CCB
:100BB0000D0E0F101112131415161718191A1B1CED
:100BC0001D2F3130354C11241FBECFEFDAE0DEBFD0
:100BD000CDBF04B603FE27C08091C4039091C50326
:100BE000A091C603B091C7038730904BA740B04B8C
:100BF000D1F41092C4031092C5031092C603109250
:100C0000C70314BE84B7877F84BF0FB6F894A89536
:100C100080916000886180936000109260000FBE38
:100C2000E0E0F8E3099511E0A0E0B1E0E8E6F9E6DC
:100C300002C005900D92A23AB107D9F723E0A2EACB
:100C4000B1E001C01D92A43CB207E1F70E947D29EA
:100C50000C942A340C940000E82F9E3F61F18AE046
:100C6000989FE00D11248E2F877041E001C0440F42
:100C70008A95EAF7E695E695E69583E0E89FF00128
:100C80001124ED52FD4F30E020E070E05191DF0182
:100C90001197CB01022E02C0969587950A94E2F730
:100CA000817081958527842385278C932F5F3F4F03
:100CB0002330310559F70895E82F9E3F41F18AE02E
:100CC000989FE00D11249E2F9770E695E695E69586
:100CD00083E0E89FF0011124ED52FD4F50E040E029
:100CE00080E0219130E0092E02C0369527950A94C4
:100CF000E2F721703327042E01C0220F0A94EAF78D
:100D0000822B4F5F5F4F4330510559F7089580E0C4
:100D1000089580918A0290918902981301C00895E4
:100D20008F5F8770FACF90911D019923C1F0909148
:100D30000E0397FF14C0E82FE695E695E695803FF1
:100D4000F8F4F0E0EC55FE4F877021E030E001C090
:100D5000220F8A95EAF78281822B82830895A6EA80
:100D6000B1E0EFEF90E02D91821751F0EF3F19F4D1
:100D7000211101C0E92F9F5F9630A9F7EF3F09F4D9
:100D800008950E2E000CFF0BEC55FE4FE6CF909110
:100D90001D019923E1F090910E0397FF18C0E82FF1
:100DA000E695E695E695803FF0F4F0E0EC55FE4FD1
:100DB000877021E030E0A90102C0440F551F8A95D9
:100DC000E2F7CA0180959281892382830895E6EA39
:100DD000F1E09191891303C0DF0111971C9251E05A
:100DE000EC3AF507B1F70895982F90958091130389
:100DF000892380931303089580911003882331F091
:100E00001092100310921A031092190308959091F2
:100E10000E0392FF06C0282F28712830F9F4877F2F
:100E2000846093FF06C0282F28712831F1F4877E53
:100E3000846120910F0320FF06C0382F38713830AD
:100E4000D9F4877F816021FF06C0282F28712831BF
:100E5000D1F4877E816194FD877E0895282F2471C7
:100E60002430F9F68B7F8860DCCF282F2471243161
:100E700001F78B7E8861DDCF382F3171313019F762
:100E80008E7F8860E0CF282F2171213121F78E7E5F
:100E90008861E1CFCF93DF93EC01803E910509F4A7
:100EA00060C050F58133910509F4A6C090F48932F1
:100EB000910509F49AC08A9709F4A5C0C130D105FB
:100EC00009F462C0CE010497813A910508F055C03B
:100ED0005BC089339105F1F182389105D9F1C5974D
:100EE00009F47CC0C83AD10508F094C0C53AD105D0
:100EF00028F3A497D06448C0843E910509F453C0F8
:100F000068F4823E9105E1F1833E910509F440C009
:100F1000CE01805E9109089780F536C0863E910526
:100F200009F44CC0873E910509F44DC0811523E5B5
:100F3000920708F09AC0811532E5930708F000C1C6
:100F40008F3F910511F008F074C0803F910550F279
:100F5000D0651AC080910E038370B1F0C0EED0E06E
:100F600013C080910E0380FD15C190910F0390FF77
:100F70000BC0C3EED0E084FF07C0D0E0C0E004C0E7
:100F800080910E0382FDF5CFCE01DF91CF910895C0
:100F900080910E0382FD01C190910F0390FDDECF81
:100FA00084FFF2CFEACF80910F0381FFEDCF8091D4
:100FB0000E03C7EED0E084FDE0CFE6CF80910E03B4
:100FC00083FDF7CFE1CF80910E0383FDE9C09091BF
:100FD0000F0391FFE5CFC4EED0E0D6CF80910E0392
:100FE00085FFD2CFC9E2D0E0CFCF80910E0385FF3D
:100FF000CBCFC5E3D0E0C8CF80910E0386FFC4CF2E
:10100000CAE2D0E0C1CF80910E0386FFBDCFC1E31D
:10101000D0E0BACFCF3BD10508F07ACFC85AD0E0A4
:10102000CC0FDD1FCC58DE4F0990D881C02DD46481
:10103000ABCFC11581E5D80798F4C11520E5D207DB
:1010400008F061C0C11530E2D30708F49DCFCE018E
:1010500090548115904108F090CFDF70D06A94CF02
:10106000DC2FCC27C16FD06A8FCF811539E593076C
:10107000A0F5C11588E5D80708F07AC0C11525E5A7
:10108000D207C8F4C11534E5D30708F06CC09E013F
:101090002370332781E090E002C0880F991F2A95C2
:1010A000E2F7C695C69520E2C29FE0011124C82B45
:1010B000D92BDA6869CFCE0195558F3F910511F094
:1010C00008F05BCF8C2F0E940707C82FD0E0DC2FE1
:1010D000CC27CC27DF71D06257CF81153AE5930733
:1010E00008F44BC090568115904208F046CF8D2FE2
:1010F0008F710E94070790E0982F882788279F719B
:101100008C2BEC01E8CF9E0174E0369527957A95FB
:10111000E1F723708C2F86958695837030E2839F4C
:10112000C0011124922BC37021E030E002C0220FD5
:10113000331FCA95E2F7822B932BEC01DC6824CF96
:101140009C012370332781E090E002C0880F991F33
:101150002A95E2F7C695C69520E2C29FE0011124C8
:10116000C82BD92BEBCFDC2FCC27C46FD06A0CCF88
:10117000DC2FCC27C06FD06A07CF8F700E94070783
:1011800034E0D695C7953A95E1F7CF709C2FEC01E6
:10119000D069FACEC9E3D0E0F7CEC2EED0E0F4CE0B
:1011A000C6EED0E0F1CE80E00895F894E82FE29505
:1011B000EF70F0E041A18F7021E030E0B90102C092
:1011C000660F771F8A95E2F7CB01962F90959423AF
:1011D00091A392A1892B82A3789408950895809178
:1011E000FB0280FD14C081FD14C082FD16C08091F9
:1011F000FD02882381F0843180F422E3829FC001C4
:10120000112464E170E00E942033862F08958CE061
:10121000089589E1089585E0089582E30895809115
:10122000FB0280FD16C081FD16C082FD16C08091B4
:10123000FC028823A1F0883280F428E0829FC0015C
:10124000112468E270E00E942033862F672B39F06A
:10125000089582E0089584E0089588E0089581E08B
:101260000895805F803108F045C0E82FF0E0E45D2C
:10127000FB4C0C9456330E94EF0881958093010338
:1012800008950E94EF08FACF0E94EF08819580939D
:10129000000308950E94EF08FACF0E940F0980937F
:1012A000020308950E940F098195F9CF0E940F094A
:1012B00081958093030308950E940F09FACF8091CE
:1012C000FF0281608093FF0208958091FF02826097
:1012D000F9CF8091FF028460F5CF8091FF02886092
:1012E000F1CF8091FF028061EDCF8091FB028160A0
:1012F0008093FB0208958091FB028260F9CF809178
:10130000FB028460F5CFE82F3091010320910003A8
:101310009091020380910303E03FA1F437FD109206
:1013200001038091000390910103892B11F4109225
:10133000FD028091020390910303892B11F4109216
:10134000FC020895E13F19F413164CF3EACFE23F93
:1013500029F427FFE6CF10920003E3CFE33F19F40F
:101360001216CCF3DECFE93F29F41916D4F6109209
:101370000203D7CFEA3F19F497FFD3CFF8CFEB3F63
:1013800029F487FFCECF10920303CBCFEC3F19F4A3
:101390001816CCF3C6CFE45FEC3008F0C2CFF0E013
:1013A000E45CFB4C0C9456338091FF028E7F80935B
:1013B000FF02B7CF8091FF028D7FF9CF8091FF02AE
:1013C0008B7FF5CF8091FF02877FF1CF8091FF0265
:1013D0008F7EEDCF8091FB028E7F8093FB02A1CFA9
:1013E0008091FB028D7FF9CF8091FB028B7FF5CF3F
:1013F0006F927F928F929F92AF92BF92CF92DF9225
:10140000EF92FF920F931F93CF93DF93B82EA62EE8
:101410008901E42FF0E0E05DF84F611119C0E4911B
:101420008E2F2E2FD80111962C931197EC93129694
:101430008C93DF91CF911F910F91FF90EF90DF90F0
:10144000CF90BF90AF909F908F907F906F900895B6
:10145000E62EF12C249186E0B89E60011124CFEF96
:10146000D0E0C601BE010E940C338B2D90E0880FA6
:10147000991F35E5369FA001379F500D1124841B1D
:10148000950B982F990F980FAE014E195F09249F65
:10149000D001259FB00D1124EB2FA99E50011124DE
:1014A000AB2CBB24AE014A195B09249F5001259F38
:1014B000B00C11248B2D3E01691A71086E9C4001FD
:1014C0006F9C900C7E9C900C1124892C9924C81937
:1014D000D9092C9FA0012D9F500D11246330710557
:1014E000D1F09CEFC91693E0D90670F46130710514
:1014F000B1F062307105B9F0FFEFCF16D10408F0FA
:1015000091CF8B2FE52F8ECF6430710579F0663047
:101510007105B9F387CFEB2D822F2B2F83CFE22FCD
:101520002B2D8B2F7FCF852FE22FF7CF822F252FCB
:1015300079CFCF93C82F26EA33E048E76FEF81FDDC
:1015400002C040E060E080E00E94F8098C2FCF915B
:10155000089580910903982F9E7F29F481708260FD
:101560008093090308958A34E8F381708864F8CF82
:10157000FA0181110994FB01FDCFCF93DF93CDB721
:10158000DEB728970FB6F894DEBF0FBECDBF8C37FD
:1015900024E1920770F469E070E00E940C33CB0103
:1015A00028960FB6F894DEBF0FBECDBFDF91CF9166
:1015B0000895B0E0A0E08A50974DAF4FBF4F22276B
:1015C000382F492F5A2FCA01B90125EF38E241E0DF
:1015D00050E00E94343329833A834B835C83CA01F1
:1015E000B9010E94EE329B01AC0169817A818B8145
:1015F0009C810E94EE32472F582F692F7727CA010E
:10160000411551056140710559F68FEF9FEFC8CF25
:10161000CF93DF9300D000D0CDB7DEB7863088F50A
:10162000811130C02091880030918900232B51F026
:1016300090916F009D7F90936F0090916F009E7FBF
:1016400090936F005898282F30E0AFEFBFEF0E94C3
:101650006B3369837A838B839C8325E030E040E0A1
:1016600050E00E943433C9010E94BD0A9093890062
:10167000809388000F900F900F900F90DF91CF9183
:10168000089585E02091880030918900232BD9F6B8
:1016900090916F00926090936F0090916F009160B5
:1016A00090936F00D0CF282F220F220F220F9091FE
:1016B00004039770922B90930403987F21E009F420
:1016C00020E09091040320FB90F9909304030C9484
:1016D000080B1092240310922303EAE8F3E08581BB
:1016E000811102C014821682379683E0E63AF80729
:1016F000B1F70895AC013091260360912503232FA3
:10170000621301C00895822F90E0FC01EE0FFF1FCD
:10171000E55EFC4F0190F081E02DE417F50791F4B0
:1017200067E0649FF001659FF00D1124E657FC4FC0
:1017300041E044832313E6CF019683709927809379
:10174000260308950196282F2370DACFE0918702AF
:10175000F0918802309721F00190F081E02D0994FA
:1017600080E008952091F8013091F9012817390798
:1017700071F09093F9018093F801E0918702F09164
:101780008802309721F00680F781E02D09940895B2
:101790002091F6013091F7012817390771F09093E5
:1017A000F7018093F601E0918702F091880230976B
:1017B00021F00084F185E02D099408952FB7F89465
:1017C0008091520290915302A0915402B09155021F
:1017D0002FBF08958091130390911503892B909149
:1017E000FA02892B8093A40180911003882329F1A8
:1017F0000E94DE0B2091190330911A03821B930B78
:101800008838934110F00E94FC068091A4019091C9
:101810001003892B8093A40180911D01882341F13D
:1018200080910E0387FF24C08EE1E6EAF1E090E0AC
:10183000815000F591110E94FC06E0918702F09121
:1018400088023097E1F080911D01882359F0809142
:101850000E0387FF07C08091A4018093A50185E056
:101860008093A4010280F381E02D84EA91E0099441
:1018700086E0DBCF21912223D9F29F5FD9CF089553
:10188000882339F090911303892B809313030C94D0
:10189000EA0B0895882321F00E94F4060C94EA0BC9
:1018A00008950E94DE0B2091000330910103232B49
:1018B00021F08093360290933702209102033091F9
:1018C0000303232B21F08093340290933502E0919F
:1018D0008702F0918802309749F082E08093FE02FF
:1018E0000480F581E02D8EEF92E00994089588231D
:1018F00009F452C0823871F40E94A60B81FF4CC0DB
:1019000089E30E9493060E94EA0B89E30E94C706BE
:101910000C94EA0B833859F40E94A60B80FF3CC05C
:1019200083E50E9493060E94EA0B83E5EFCF84389B
:1019300059F40E94A60B82FF2FC087E40E949306F1
:101940000E94EA0B87E4E2CF9CEF980F913AF0F205
:1019500090E2980F983050F4877091E001C0990F91
:101960008A95EAF7892F0E94F406D2CF9BE5980F5B
:10197000933020F490E080E00C94B20B98E5980F3F
:10198000973120F490E080E00C94C80B803F20F069
:101990000E9483090C94510C089590E080E00E940D
:1019A000B20B90E080E00E94C80B109215031092D9
:1019B000FA020E94EA0B86E0EEEFF2E0DF011D92F0
:1019C0008A95E9F71092FD021092FC021092FB0238
:1019D0000C94510C809311030C94CD0C0E94990A25
:1019E000809312030C94CD0C21E030E001C0220F53
:1019F0008A95EAF780911203822B0C94EE0C909159
:101A00000F0392FD10C098E0899F90011124622B72
:101A1000609316030E94F40C0E94DE0B909318034F
:101A20008093170308950C94F40C21E030E001C07A
:101A3000220F8A95EAF720958091120382230C9455
:101A4000EE0C909116038095892380931603282F1E
:101A5000277039F4282F082E000C330B9217130629
:101A600021F490910F0392FF0BC085958595859584
:101A70000E94150D1092160310921803109217036E
:101A800008959C014FB7F8948091520290915302AF
:101A9000A0915402B09155024FBF821B930B089541
:101AA0008091F5010895FC01CB012091D001309186
:101AB000D1012617370790F0009729F42091E8000C
:101AC0002E772093E80040E0009751F4411108C0C0
:101AD0008091E80082FF31C080E00895C901F3CF12
:101AE00020915B022223A9F12530A9F12091E80081
:101AF00023FD2DC02091E80022FDEACF2091E800CF
:101B000020FFE2CF3091F3002091F200009719F00E
:101B10002830310558F041E02830310509F040E027
:101B20002091E8002E772093E800CECF419140939A
:101B3000F10001972F5F3F4FE9CF80915B0288232F
:101B400041F0853041F08091E80083FFC1CF81E012
:101B5000089582E0089583E008958091CA0187FF87
:101B600013C08091E80082FF06C08091E8008B7767
:101B70008093E80004C080915B028111F2CF089548
:101B800080915B028823D9F38091E80080FFF8CF31
:101B90008091E8008E77ECCF2091E4003091E50051
:101BA00095E6A9012091EC00822F817020FF06C0EC
:101BB0008091E80080FF06C080E008952091E80051
:101BC00022FD1AC080915B02882389F0853089F05C
:101BD0008091EB0085FD0FC02091E4003091E5007D
:101BE00042175307F9F29150E1F684E0089582E03C
:101BF000089583E0089581E00895E8EDF0E08081A4
:101C00008E7F80831092E2001092DA001092E10041
:101C1000A0EEB0E08C9181608C9380818F7780837F
:101C200019BCA7EDB0E08C918E7F8C9380818F7E64
:101C300080831092C9010895EF92FF920F931F9332
:101C4000CF937C018B010E94CC0DC82F811117C04E
:101C50008091E80085FD0BC08091E8008E7780932D
:101C6000E8000E94CC0D882399F3C82F08C0F70123
:101C700081917F018093F1000150110949F78C2F68
:101C8000CF911F910F91FF90EF900895CF932091E6
:101C90005B022430F1F42091E900C091EC00C7957B
:101CA000CC27C7952F70C22B22E02093E90020910A
:101CB000E80020FF0BC050E040E060E270E00E94CE
:101CC0001C0E8091E8008E778093E800CF70C0935F
:101CD000E900CF91089580911203982F9670963065
:101CE00019F488600C94EE0C877FFCCF982F9093AA
:101CF000E900242F762F50E0891731F07091EC0025
:101D00002091ED005091F00021FD06C09F5F9730BB
:101D100071F78093E90008953091EB003E7F309396
:101D2000EB003091ED003D7F3093ED003091EB0002
:101D300031603093EB007093EC002093ED005093F2
:101D4000F0002091EE0027FDE1CF0895CF92DF92C1
:101D5000EF92FF920F931F93CF93DF93C8EDD0E0E4
:101D600088818F7E8883E7EDF0E0808181608083C9
:101D700084E082BF81E08093C90188818E7F88835F
:101D800002EE10E0F80110821092DA0081EEC82E07
:101D9000D12CF601108288818F77888388818068B2
:101DA000888388818F7D888319BC10925B02109292
:101DB000C80110925A021092C70190EEE92EF12C40
:101DC000F70180818B7F808388818160888342E0F6
:101DD00060E080E00E94760EF60180818E7F808335
:101DE000F801808181608083808188608083F70131
:101DF00080818E7F8083888180618883DF91CF910D
:101E00001F910F91FF90EF90DF90CF900895CF93A7
:101E1000C82F882309F4AEC08238C1F40E94A60BF3
:101E200081FDA8C089E30E9493060E94EA0B2FEF70
:101E300031EE84E0215030408040E1F700C00000E6
:101E400089E30E94C706CF910C94EA0B8338A1F472
:101E50000E94A60B80FD8EC083E50E9493060E941F
:101E6000EA0B9FEF21EE34E0915020403040E1F743
:101E700000C0000083E5E5CF8438A1F40E94A60BE2
:101E800082FD78C087E40E9493060E94EA0B8FEFE0
:101E900091EE24E0815090402040E1F700C0000026
:101EA00087E4CFCF8CEF8C0F813A90F580911D01A4
:101EB000882301F180910E0387FF1CC0EC2FE6956B
:101EC000E695E695F0E0EC55FE4F828190E04C2FD0
:101ED000477021E030E002C0220F331F4A95E2F73D
:101EE00082239323892B81F08C2F0E94C7060E94A6
:101EF000EA0B0AC0E6EAF1E08CEA91E02191C21710
:101F000099F38E179F07D1F78C2F0E9493069BCFD2
:101F100080E28C0F883068F4C77021E030E001C0A7
:101F2000220FCA95EAF780911303822B8093130343
:101F30008ACF8BE58C0F833038F42C2F2452330B4F
:101F4000C901CF910C94B20BE8E5EC0FE73150F4E6
:101F5000F0E0EE0FFF1FEC58FE4F80819181CF9192
:101F60000C94C80BC03F30F08C2F0E943109CF91E8
:101F70000C94510CCF9108950F931F93CF93C82FBA
:101F80000AE010E0893311F400E510E08C2F0E9484
:101F9000070F8FE99FE00197F1F700C000000150A3
:101FA0001109B9F78C2FCF911F910F910C94770CD9
:101FB000AF92BF92CF92DF92EF92FF920F931F9357
:101FC000CF93DF93EC018AE0A82E8881882309F45F
:101FD0008EC08130D9F599818A81913021F4229681
:101FE0000E94BC0F05C0923029F422960E94070F70
:101FF0002196EBCF933021F422960E94770CF8CFF4
:10200000943011F02196F4CF229620E030E0AE011A
:102010004F5F5F4F8053990B8A30910560F0211517
:10202000310531F38FE99FE00197F1F700C000001F
:1020300021503109F4CFA29EB001A39E700D11244E
:102040009C01260F371F8981EA01E1CFE82FF0E0DC
:10205000EA5BF44FB490282F26952695269530E01C
:10206000F901EA5CF44FE4908770F12C082E02C06D
:10207000F594E7940A94E2F791E0E922FF24F9014C
:10208000EA5DF44FC490D12C082E02C0D594C794B9
:102090000A94E2F791E0C922DD24F901EA5EF44FE7
:1020A000049110E002C0159507958A95E2F701703A
:1020B0001127E114F10419F081EE0E94070FC114F9
:1020C000D10419F086EE0E94070F8B2D0E94BC0FE1
:1020D000CD2819F086EE0E94770CEF2819F081EEDA
:1020E0000E94770C012B09F483CF8CE279CFDF912A
:1020F000CF911F910F91FF90EF90DF90CF90BF9005
:10210000AF900895FF920F931F93CF93DF93C62F45
:10211000D42F122F8823A9F0609305030E94DE0BB1
:102120009093C5018093C401C77081E001C0880FFE
:10213000CA95EAF7DF91CF911F910F91FF900C9410
:10214000400C80910503681334C08091C4019091C4
:10215000C5010E94410D883C910558F500E20D0F24
:10216000CD17A9F0C770FF24F3948F2D01C0880FFD
:10217000CA95EAF70E944A0C083048F48D2F877000
:1021800001C0FF0C8A95EAF78F2D0E94400C812F29
:102190000E94BC0F0830A0F4D77081E001C0880F06
:1021A000DA95EAF7DF91CF911F910F91FF900C9490
:1021B0004A0CC77081E001C0880FCA95EAF7F2CFD8
:1021C000DF91CF911F910F91FF90089560910F01C2
:1021D0008091090380FF20C080910E0143E0849F1D
:1021E000C00111248A559C4F6E9A2EB12F7B3EB1AF
:1021F00030645FB7F894FC01649FE00DF11D112479
:10220000BF0168177907D1F45FBF8FE594E00197AC
:10221000F1F700C000000895809110019091110124
:1022200023E0829FF0011124EA55FC4F8917A0F6A4
:102230001182108212828F5F3396F8CFFC01419198
:10224000CF01E8E03EB9000000C047FF2EB9440FBF
:10225000000000C000C000C02EB900C0EA9591F790
:10226000D0CFCF93C82F29EA33E048E76FEF80E65D
:10227000C1FD03C040E060E080E00E94F8092CEA64
:1022800033E048E76FEF80EAC0FD03C040E060E064
:1022900080E00E94F809CF910C94E6100F931F93F1
:1022A000CF93DF93EC0110E000E0909112019017C2
:1022B000110609F06CF40E94E6108C8190E0019602
:1022C000817099278C83DF91CF911F910F91089591
:1022D00080911001A801480F511D9A01220F331F50
:1022E000240F351F2A553C4F4C8160910B03809180
:1022F0000A0396959017110651F04CF0442349F0CB
:1023000040910C030E94F8090F5F1F4FCECF44236A
:10231000B9F340E0F7CFEF92FF921F93CF93DF9393
:10232000EC0110E0EE24EA94F12C609112011617F2
:1023300070F00E94E6109A818C8190FF25C08F5F1B
:102340008C83DF91CF911F91FF90EF900895809142
:102350001001810F9927991F9C01220F331F280F0D
:10236000391F2A553C4F70E0C7010E942033962F39
:102370008C8140910C0360910B03199F800D1124F7
:102380000E94F8091F5FD1CF8150DACFAF92BF9280
:10239000CF92DF92EF92FF920F931F93CF93DF9331
:1023A000FC0182810FEF80FF01E010E0A09012019C
:1023B0001A15C8F00E94E61080912502013009F03C
:1023C00053C0811102C08091120181508093250277
:1023D000DF91CF911F910F91FF90EF90DF90CF9001
:1023E000BF90AF90089580911001C12ED12C8C0D1B
:1023F0009D2D911DEC01CC0FDD1FC80FD91FCA55B3
:10240000DC4F198218821A8234E0E32EF12CB12CB1
:10241000809125028B0D8B301CF16AE00E94FE3208
:10242000892F082E000C990BC816D90691F48091BB
:102430000C038E9DA0018F9D500D1124559547953D
:10244000559547959E0160910B0380910A030E9468
:10245000F809B00EF1E0EF1AF108D1F61F5FA6CF30
:1024600087FFDFCF8A0DDDCF90E0019660911201EA
:1024700070E00E942033AACF1F93CF93DF93D091B7
:1024800010019091110183E0D89FF0011124EA55C9
:10249000FC4F8D2F891738F1C0E013E060911201D5
:1024A000C61738F10E94E6102091010180912402A4
:1024B000820F8093240290910201920F9093020167
:1024C000191654F4082E000C990B4091120141503A
:1024D000550B841795071CF0219520930101DF917E
:1024E000CF911F9108951182108212828F5F3396CF
:1024F000D1CFEC2FF0E070E0CF010E9420338D0FA0
:10250000482F50E020912402022E000C330BE217DA
:10251000F307BCF020910201022E000C330B2E17A2
:102520003F077CF0819F900111242A553C4F409138
:102530000C0360910B0380910A030E94F809CF5F9E
:10254000ADCFFA01EE0FFF1FE40FF51FEA55FC4F68
:10255000118210821282F3CFEF92FF920F931F939A
:10256000CF93DF93CDB7DEB72E970FB6F894DEBFCB
:102570000FBECDBF8D879E87AD85BE8514961C91FD
:10258000212F30E0D9010E946B339B01AC010E94E6
:10259000813369837A838B839C83E0E2F0E0E11BE3
:1025A000F109A5E5B0E09B01AC010E948133698788
:1025B0007A878B879C879F01DF010E9463339B0191
:1025C000AC010E948C336D837E838F8398879B013F
:1025D000AC0189819A81AB81BC81280F391F4A1FC8
:1025E0005B1F69857A858B859C850E943433F22E2A
:1025F000422F50E099E29F1588F1A3E02A9F9001B5
:10260000112435952795122F109500E085E5E82EC9
:10261000EF1880911201081778F10E94E610ED85FD
:10262000FE85948181E0992319F0903219F48FEF9F
:102630008093000180910001890FAD85BE851496BD
:102640008C932E960FB6F894DEBF0FBECDBFDF91F0
:10265000CF911F910F91FF90EF90089585E590E045
:10266000841B950B9C01220F331F280F391F37FF46
:10267000C8CF2F5F3F4FC5CF8E2D01FD8F2D4091CD
:102680001001400F5527551F9A01220F331F240FA9
:10269000351F2A553C4F412F60910B030E94F809CA
:1026A0000F5FB7CF9091090390FF14C09091100174
:1026B0002091110133E0939FF0011124EA55FC4F62
:1026C000921710F00C94E6108183608342839F5F21
:1026D0003396F6CF08950F931F93CF93DF9300D0D7
:1026E0000F92CDB7DEB78C018091230281110AC011
:1026F0009E012F5F3F4F4FEF6FEF0E94F8098A81D5
:1027000080932302F8016481613049F06230F1F076
:102710008091230240E0662331F040E019C06091CF
:10272000230240E080E00E945213F801848190E08F
:10273000019663E070E00E94203384830F900F9035
:102740000F90DF91CF911F910F9108954091230237
:1027500080E060E0E8CFCF93DF9300D00F92CDB759
:10276000DEB79091090390FF0FC09E012F5F3F4F8E
:102770000E94F8094B8169818A810F900F900F9018
:10278000DF91CF910C9452130F900F900F90DF9127
:10279000CF910895CF93DF93EC01EC81F0E0E55DFC
:1027A000F94F4491E9E0F3E0628181810E94AB132B
:1027B0008C818F5F8C83DF91CF910895CF93DF93CE
:1027C000EC01E9E0F3E0438162818C810E94AB136C
:1027D0008C818F5F8C83DF91CF91089581E080930E
:1027E000E00080E28093D8001092C9008FE19EE45F
:1027F0000197F1F700C0000087E090EBDC018093C7
:10280000C4039093C503A093C603B093C70388E1A4
:102810009CE00FB6F894A895809360000FBE90934B
:102820006000FFCFCF93DF93D82FC92F80911D0178
:102830008823C1F180910E0387FF34C060E284E0F9
:102840008093E9008FEF9091E800815095FD06C0DC
:1028500095ED9A95F1F700008111F5CF8091E80090
:1028600085FF1DC080911D0170E050E040E08111A6
:1028700004C050E040E068E070E08D2F9C2F0E9483
:102880001C0E8091E8008E778093E80080E2ED2FA7
:10289000FC2FA5EDB1E001900D928A95E1F7DF9153
:1028A000CF91089568E081E0CBCF24E02093E90048
:1028B0002FEF3091E800215035FD06C035ED3A95F7
:1028C000F1F700002111F5CF2091E80025FF0BC0A2
:1028D00050E040E066E070E00E941C0E8091E8004D
:1028E0008E778093E800089590915B02943029F5EB
:1028F0008093D2016093D3017093D4019093E90047
:102900008FEF9091E800815095FD06C095ED9A9566
:10291000F1F700008111F5CF8091E80085FF0DC02F
:1029200050E040E063E070E082ED91E00E941C0E18
:102930008091E8008E778093E8000895BC0183E0E1
:102940000C947414BC0184E00C947414CF93C09163
:102950000F03C2FB992790F9981781F080FBC2F909
:10296000C0930F0360910E0384E090E00E94EE3369
:102970006C2F82E290E0CF910C94EE33CF910895CA
:10298000682F86E090E00C94EE338091040381FD83
:102990000EC08260809304030E94C014109229022A
:1029A000109228021092270281E080932602089557
:1029B0008091040381FF0EC08D7F809304030E94E9
:1029C000C014109226028091040386958695869500
:1029D0000C94080B0895CF93C82F6FEF811168E90D
:1029E00083E290E00E94EE336FEFC11161E284E276
:1029F00090E00E94EE336FEF6C0F85E290E0CF9194
:102A00000C94EE330F931F93CF93DF9389018230A1
:102A100048F56A3038F54A3028F521153C4531F43F
:102A20002091560230915702232BE1F0C42FD0E0C1
:102A3000CC0FDD1F94E1699FC00DD11D112498ECCE
:102A4000899FC00DD11D1124612FCE0187960E9450
:102A5000EE33602FCE018896DF91CF911F910F91B9
:102A60000C94EE33DF91CF911F910F910895CF9386
:102A7000DF93CFEDD1E060E0CE010E94EE332196EE
:102A8000C11584E0D807B9F7DF91CF910895CF93AE
:102A900084E090E00E94DA33C82F82E290E00E9446
:102AA000DA33982F8C2FCF91089583E290E00E9423
:102AB000DA33883981F484E290E00E94DA3381329B
:102AC00051F485E290E00E94DA3391E0811190E0C8
:102AD000892F8170089580E0FCCF0F931F93CF93CF
:102AE000DF93823030F56A3020F54A3010F5C42F7C
:102AF000D0E0CC0FDD1F24E1629FC00DD11D112459
:102B000038EC839FC00DD11D1124CE0187960E9401
:102B1000DA33082F10E0102F0027CE0188960E948C
:102B2000DA339801282BC901DF91CF911F910F91C2
:102B3000089590E080E0F8CF462F672F209158024B
:102B400030915902232B41F4823030F47A3020F452
:102B50004A3010F40C946D1590E080E00895DF92F7
:102B6000EF92FF920F931F93CF93DF937C0100911D
:102B7000120380911103082BC7E0D0E010E0DC2E97
:102B8000C8010C2E02C0959587950A94E2F780FD46
:102B90000CC02197A0F7D12C8D2DDF91CF911F91E3
:102BA0000F91FF90EF90DF900895B7018C2F0E9456
:102BB0009C150E944A07019761F3EECF0F931F9374
:102BC000CF93FC01868197810097D9F4828100819F
:102BD0001181882389F0662379F0C8010E94AF151E
:102BE000C82F682FC8010E942C06B8018C2FCF91E6
:102BF0001F910F910C949C15C8010E945C06C82F70
:102C0000F4CFCF911F910F910895CF93DF93D82FD9
:102C1000C92F0E94AF156D2F7C2F0E949C15DF914C
:102C2000CF910C944A07FC0186819781009791F01F
:102C30000E944A07282F892F8F70392F32953F70B5
:102C4000903CA8F43A30D8F4343048F43230B8F438
:102C500080E00895808191810E940516EBCF363087
:102C6000B9F781E0283E88F0213F91F70EC03C3053
:102C700011F03F3069F7869586958695089581E035
:102C8000203F39F018F4283E18F70895243F01F743
:102C9000FCCF08951092130380911D01E6EAF1E044
:102CA000882359F080910E0387FF07C08EE1DF0172
:102CB0001D928A95E9F70C94CD0C86E0F8CF1F930E
:102CC000CF93DF93CDB7DEB7AA970FB6F894DEBFE8
:102CD0000FBECDBF8AEC91E0FC0101962091F1007E
:102CE000208321E0823D9207B9F78091CB018930A2
:102CF00009F456C0C8F4823009F4B2C0833009F434
:102D000081C0813071F18091E80083FF8EC2809193
:102D1000CA019091CB019A3008F087C2E92FF0E008
:102D2000E85BFB4C0C9456338A3009F488C08B3036
:102D300051F78091CA01813231F78091CE01909193
:102D4000CF01892B01F78091E800877F8093E8000D
:102D50000E94AD0D8091CC0180931D010E944A1606
:102D6000D2CF8091CA01813A71F68091E800877FC5
:102D70008093E8008091CE019091CF01892B61F47E
:102D800060E285ED91E070E00E94530D8091E800D3
:102D90008B778093E800B7CF60E090E080E0F3CFDE
:102DA0008091CA01813209F0AECF8091CE0190911D
:102DB000CF018D7F892B09F0A6CF8091E800877F16
:102DC0008093E8008091E80082FF17C09091F300A3
:102DD0008091F200029729F48091F1008B7F81307D
:102DE00021F48091F1008093F5018091E8008B77C8
:102DF0008093E8000E94AD0D86CF80915B02811127
:102E0000E1CF81CF8091CA01813A09F07CCF8091D6
:102E1000CE019091CF01892B09F075CF8091E80008
:102E2000877F8093E8008091E80080FFFCCF80914D
:102E30001D018093F1008091E8008E77D9CF8091B9
:102E4000CA01813209F05FCF8091E800877F8093CB
:102E5000E8000E94AD0D8091CD018093C60153CF53
:102E60008091CA01813A09F04ECF8091E800877FB6
:102E70008093E8008091E80080FFFCCF8091C6013C
:102E8000D8CF803899F0823809F0CFC18091CE0137
:102E90008F70873008F0C9C18093E9008091EB0002
:102EA00085FB882780F91092E90006C08091C70150
:102EB00090915A02911182609091E800977F9093CF
:102EC000E8008093F1001092F1008091E8008E7785
:102ED000A8C1882309F496C1823009F0A6C1809167
:102EE000CC01811199C18091CE018F702FEF280FF5
:102EF000263008F09AC18093E9002091EB0020FF72
:102F00008BC1933031F48091EB0080628093EB00B1
:102F100083C19091EB0090619093EB0021E030E051
:102F200001C0220F8A95EAF72093EA001092EA0086
:102F30008091EB008860EACF811177C11091CC01BC
:102F40001F778091E3008078812B8093E30080914C
:102F5000E800877F8093E8000E94AD0D8091E80033
:102F600080FFFCCF8091E30080688093E30082E0E3
:102F7000111183E080935B0258C18058823008F0C1
:102F800054C14091CC015091CD014C3D83E0580794
:102F900099F583E08A838AE289834FB7F894DE014A
:102FA000139620E03EE051E2E32FF0E0509357000B
:102FB000849120FF03C082958F703F5F8F708A30AD
:102FC000C8F0895C90E08D939D932F5F243161F769
:102FD0004FBF8091E800877F8093E8006AE270E04D
:102FE000CE0101960E94530D8091E8008B7780936B
:102FF000E8001BC1805DE6CF8091CE019091CF01AA
:10300000252F33272330310509F44AC078F52130C4
:10301000310509F486C08BE590E0EAECF1E022305E
:10302000310509F002C12091E800277F2093E800D4
:103030002091D0013091D1018217930708F49C01AF
:1030400040E02115310509F071C041116FC0809138
:10305000E80082FDC9CF80915B02882329F2853088
:1030600019F28091E80083FFF2CFBECF2132310503
:1030700009F448C02232310509F0D7C083309105E8
:1030800008F0D3C0FC01EE0FFF1FE15DFE4F019081
:10309000F081E02D845D9E4FDC018C9190E026C094
:1030A000CA019927423031F18330910568F40097C5
:1030B000B1F0019709F0B9C0E5E6F2E0E4918E2F96
:1030C00090E0E5E6F2E012C0039709F0AEC0E7E356
:1030D000F2E0E4918E2F90E0E7E3F2E007C0E7E84A
:1030E000F2E0E4918E2F90E0E7E8F2E0009709F437
:1030F0009CC099CFE5E5F2E0E4918E2F90E0E5E504
:10310000F2E0F4CF8330910508F08FC0880F991F4B
:10311000FC01EB5CFE4F0190F081E02D89E090E036
:1031200082CF82E190E0E5E2F2E07DCF80915B0228
:10313000882309F459CF853009F456CF8091E800EF
:1031400083FD52CF8091E80082FD81CF8091E8001D
:1031500080FF77CF9091F3008091F2002115310527
:1031600019F08830910550F041E0089709F040E0EF
:103170008091E8008E778093E80063CF449140937C
:10318000F1003196215031090196E8CF803809F0DD
:103190004CC08091E800877F8093E8008091C8014F
:1031A0008093F10092CE811140C01091CC01123079
:1031B000E0F58091E800877F8093E8001093C801D4
:1031C0000E94AD0D112311F084E005C08091E30051
:1031D00087FDFACF81E080935B0242E061EC81E001
:1031E0000E94760E42E261EC84E00E94760E42E29A
:1031F00061EC82E00E94760E42E260EC83E00E9485
:10320000760E13C08091CC01813079F481E0933047
:1032100009F080E080935A021092E9008091E80062
:10322000877F8093E8000E94AD0D8091E80083FFC6
:103230000AC08091E800877F8093E8008091EB00CE
:1032400080628093EB00AA960FB6F894DEBF0FBEA3
:10325000CDBFDF91CF911F9108950F931F93CF930F
:10326000DF938B01D82FC92F0E94A90AA8016D2FC7
:103270007C2F88E090E0DF91CF911F910F910C940B
:103280000034E9E0F3E083E0808311828FEF8283F2
:103290008383148263E070E08FEF9FEF0C942D190D
:1032A000CF93DF9300D000D0CDB7DEB780910D0370
:1032B000833018F48F5F80930D0380910903909100
:1032C0000A03A0910B03B0910C0389839A83AB830B
:1032D000BC83BC01CD010F900F900F900F90DF9138
:1032E000CF910C942D19CF93DF9300D000D0CDB7A0
:1032F000DEB780910D03882319F0815080930D0370
:103300008091090390910A03A0910B03B0910C03E3
:1033100089839A83AB83BC83BC01CD010F900F904E
:103320000F900F90DF91CF910C942D19AF92BF9217
:10333000CF92DF92EF92FF920F931F93CF93DF9381
:1033400000D000D000D00F92CDB7DEB7182FF62EE8
:10335000042FD22E9091090390FF83C0E92FE695A8
:10336000AE2FB0E0A55CBE4F8C91809307039E7F8B
:103370009230A1F59E012F5F3F4F812F0E94F809E7
:103380004B8169818A810E94521310930A03F09243
:103390000B0300930C03DD2009F463C08091090343
:1033A00090910A03A0910B03B0910C038C839D8331
:1033B000AE83BF83BC01CD0127960FB6F894DEBF64
:1033C0000FBECDBFDF91CF911F910F91FF90EF9076
:1033D000DF90CF90BF90AF900C942D19823019F4EC
:1033E00000910C03D2CF863019F410910A03CDCF8F
:1033F0008930D9F3893149F6E9518E2F8170C82E71
:10340000E695F0E0E55DF84FA590B490E12CBB2483
:1034100060911201E61618F00E94E610B6CF2E2D2C
:1034200030E0EA9CC001EB9C900D112470E00E94FA
:103430000C33812FC11013C0860F90911001A90188
:10344000490F511D9A01220F331F240F351F2A5592
:103450003C4F402F6F2D0E94F809E394D9CF861B73
:10346000ECCF27960FB6F894DEBF0FBECDBFDF912D
:10347000CF911F910F91FF90EF90DF90CF90BF9071
:10348000AF900895E9E0F3E0818121E0438162811A
:10349000845F0C949619E9E0F3E0818121E0438197
:1034A00062818C500C949619E9E0F3E0628129E185
:1034B000620F08F46FEF21E0438181810C9496192B
:1034C000E9E0F3E0628129E1621B08F460E021E0B9
:1034D000438181810C949619E9E0F3E043812CE06B
:1034E000420F08F44FEF21E0628181810C9496191C
:1034F000E9E0F3E043812CE0421B08F440E021E0E6
:10350000628181810C94961990E080E00E94E833FA
:103510008A3E9E4F11F40C94551580E00895CF9289
:10352000DF92EF92FF920F931F93CF93DF93CDB76C
:10353000DEB72A970FB6F894DEBF0FBECDBFEBEF14
:10354000F1E088E2DF011D928A95E9F7EAE8F3E00D
:103550008CE1DF011D928A95E9F78BEFC82E81E09F
:10356000D82E7F0107EB11E0F701D182C0824AE03B
:1035700050E0B801CE0101960E94CA3388E0FE01F6
:103580003196D60101900D928A95E1F789859A8549
:10359000D70113969C938E931297BAE0CB0ED11C51
:1035A000E7E0EE0EF11C065F1F4F0F3DF1E01F0735
:1035B000D9F62A960FB6F894DEBF0FBECDBFDF91C5
:1035C000CF911F910F91FF90EF90DF90CF900895D2
:1035D0007F928F929F92AF92BF92CF92DF92EF92A3
:1035E000FF920F931F93CF93DF93CDB7DEB72A9748
:1035F0000FB6F894DEBF0FBECDBFA0905602B090BC
:10360000570281E090E09093570280935602912CEC
:10361000812C712C6401F12C14C0F8012591349196
:103620004E2D6F2D872D0E9402150E5F1F4FE394C4
:103630008AE0E812F2CFEAE0CE0ED11CF394F8163D
:1036400039F08601000F111F05571D4FE12CE5CF02
:10365000F4E68F0E911C81E0781619F077247394AC
:10366000D9CF8E010F5F1F4FF8011192FA94E9F73D
:103670004AE050E067EB71E0C8010E9412344AE072
:1036800050E061EC71E0C8010E9412344AE050E061
:103690006BEC71E0C8010E9412344AE050E065ED25
:1036A00071E0C8010E941234B0925702A0925602F3
:1036B0002A960FB6F894DEBF0FBECDBFDF91CF9133
:1036C0001F910F91FF90EF90DF90CF90BF90AF9040
:1036D0009F908F907F90089580E00E94EB1460E0AF
:1036E00086E290E00E94EE330E94E81A0E943715AD
:1036F00081E00C94EB1460910903669570E04BE057
:1037000050E083E091E00E94A933892B19F481E015
:10371000809308030E94DE0B90932F0280932E0269
:103720000895CF93DF9300D000D0CDB7DEB790914E
:10373000090390FF45C08823E1F18532E0F58F77DA
:10374000880F909109039170892B80930903662358
:1037500081F08091090390910A03A0910B03B0912D
:103760000C0389839A83AB83BC83BC01CD010E9487
:103770002D1960910903669570E04BE050E083E0FD
:1037800091E00E94A933892BC1F01092080381E0D7
:103790008093310220E040910C0360910B038091F3
:1037A0000A030F900F900F900F90DF91CF910C9420
:1037B000961981E0C5CF84E2C3CF0E947B1BE7CF7F
:1037C0000F900F900F900F90DF91CF9108958091FF
:1037D000090386958F5F853208F081E061E00C94E3
:1037E000911B9091090396958FEF890F913009F401
:1037F00084E261E00C94911B61E00C94911B6AEEF1
:103800007EEF90E080E00E940C3460E082E090E087
:103810000E94EE3360E083E090E00E94EE3310926D
:10382000110360E084E090E00E94EE3360E082E209
:1038300090E00E94EE3360E085E090E00E94EE337D
:1038400060E086E090E00E94EE336FEF87E090E06A
:103850000E94EE3340E050E0BA0188E090E00E9420
:10386000003460E08DE090E00E94EE3340E050E0F4
:10387000BA0188E190E00E94003460E087E190E0C6
:103880000E94EE3340E050E0BA018CE190E00E94EB
:10389000003470E060E080E290E00E940C3440E090
:1038A00050E0BA0188E190E00E94003480E00E947C
:1038B000EB140E946C1BE9E0F3E08081816080835F
:1038C00086950E94FC1B21E040E86FEF80E00E949B
:1038D00096198BE00E94FC1B40E050E0BA018FE09B
:1038E00090E00E94003440E050E0BA0183E190E0B3
:1038F0000C9400340E94841A81110AC00E94FF1B9C
:103900008091040384708962809304030E94C01430
:1039100086E090E00E94DA3380930403803320F045
:10392000877088628093040390910403892F8170CB
:1039300090FF04C0892F8695869586950C94080B78
:103940009091090390FF07C09695981720F096175D
:1039500010F40C94E71B0C94FC1B8F929F92AF9277
:10396000BF92CF92DF92EF92FF920F931F93CF936C
:10397000DF93CDB7DEB728970FB6F894DEBF0FBE42
:10398000CDBF6C01DC019C9111968C91119713961F
:103990002D913C91232B21F089238F3F09F076C58F
:1039A00028960FB6F894DEBF0FBECDBFDF91CF9142
:1039B0001F910F91FF90EF90DF90CF90BF90AF904D
:1039C0009F908F900895980122513F4520313105F5
:1039D00008F048C58FEF93E00E94DA333EEEF32EF5
:1039E000F00E0FED11E0882349F1809116038770E6
:1039F000B9F2F6018281882399F282E028960FB607
:103A0000F894DEBF0FBECDBFDF91CF911F910F9114
:103A1000FF90EF90DF90CF90BF90AF909F908F90EE
:103A20000C94210D0115B4E01B07F9F2C8010E94A6
:103A3000DA33811101C0FA940F5F1F4FF110F2CFFA
:103A400080911F0190912001A0912101B09122014C
:103A500089839A83AB83BC8399249A947801EFEF8E
:103A6000EE1AFE0AC8010E94DA3389831A8288237B
:103A700009F4BBCF813009F048C05801F2E0AF0E25
:103A8000B11CC7010E94DA33E82E8A83882309F427
:103A9000ACCFC5010E94DA33F82E8FEF8E0D833044
:103AA00068F4580123E0A20EB11CFB82FF2021F034
:103AB000CE0101960E94D80F8501D0CF44E0E412D8
:103AC000FBCF580154E0A50EB11CC80103960E941B
:103AD000DA33FF2009F489CF882309F486CF815097
:103AE000990B989E9001999E300D1124AF2DA150F5
:103AF000BB0BCD01820F931F0197F0F2EFE9FFE0BE
:103B00003197F1F700C00000F7CFCE0101960E9477
:103B1000D80F5701D1CF81E00E94F40C0E946B0EA8
:103B200064CF81E00E94150DF9CF82E0F5CF82E0ED
:103B3000F9CF85E00E94530B809104030E94C014CA
:103B400054CF80E0F7CF80910403982F987F79F0CD
:103B5000885080930403887F91E009F490E080917D
:103B6000040390FB80F9809304030E94C0148091A9
:103B700004038695869586950E94080B36CF809122
:103B80000403982F969596959695883240F49F5FFA
:103B9000990F990F990F8770892B80930403809157
:103BA00004038160E0CF8091040380FF07C08E7F13
:103BB000809304030E94C01480E0DECF8160809374
:103BC0000403813019F489E0809304038091040395
:103BD000CCCF90910403892F8695869586958F5F2B
:103BE0008F719770863020F4880F880F880F982B7C
:103BF0009093040380910403AECF8091040381FF6E
:103C000003C00E94D814F1CE0E94C514EECE053F29
:103C1000BCE51B07D1F027E245EE66EE063FECE57A
:103C20001E0741F027E245EE64EE043FFCE51F0766
:103C300009F05BC40E948210D8CE27E245EE65EE03
:103C4000F9CF26E241EE60EEF5CF26E241EE62EEDC
:103C5000F1CF98012A5F3C452930310508F453C45F
:103C60000631BCE51B0709F472C48091130382720C
:103C7000063D9CE5190708F0C2C0023CACE51A07F6
:103C800008F4C8C0F801E35CFC45E331F10508F035
:103C900003C1EE5AFB4C0C945633F801E350FC453B
:103CA00080910E038160E331F105B8F4EB59FB4CD0
:103CB0000C945633C8018A5F9C45099708F033C4B9
:103CC000F801EB5FFC45E830F10590F4E858FB4C57
:103CD0000C94563380910E03826080930E0323C4AC
:103CE00080910E038460F9CF80910E038860F5CF38
:103CF00080910F03816080930F0315C480910F039F
:103D00008260F9CF80910E038061E7CF80910E032E
:103D10008062E3CF80910E038064DFCF0E944A1659
:103D200080910E038068D9CF80910E038C60D5CF2F
:103D300080910F038360DFCF80910E038E7FCDCF04
:103D400080910E038D7FC9CF80910E038B7FC5CFED
:103D500080910E03877FC1CF80910F038E7FCBCFE1
:103D600080910F038D7FC7CF80910E038F7EB5CFDB
:103D700080910E038F7DB1CF80910E038F7BADCFED
:103D80000E944A1680910E038F77A7CF80910E0371
:103D9000837FA3CF80910F038C7FADCF80910E03E3
:103DA00082FB992790F921E0922790FB82F990FB02
:103DB00083F993CF80910F03982F909591708E7F08
:103DC000892B90FB81F997CF0E944A1690910E03A0
:103DD000892F97FB87F9805880CF61E08EE090E0D3
:103DE0000E94EE33A0C360E0F9CF809106038111F9
:103DF00004C089E20E94C706BFC385E3FBCF0D352F
:103E0000100709F4F2CD0A35EDE51E0709F4E0C00C
:103E100008F0BCC001152CE5120709F4C9C00E3D1D
:103E20001C4509F4D2C0D60116968D919C9100973D
:103E300009F4D2C00E944A078C01D60112968C90D8
:103E4000129715969C9092942FE0922280911603DF
:103E50008770A1F0E82C882091F0812F807F80343A
:103E600021F080E2800F883048F082E00E94210D2E
:103E7000809116038770EE24E3948111E12C812F49
:103E800082958F70A82EB12C8C3008F0F0C0F5010F
:103E9000E058FB4C0C9456338091090380FF21C0FD
:103EA0008E7F809309038091090390910A03A0916A
:103EB0000B03B0910C038D839E83AF83B887BC0145
:103EC000CD010E942D19109208039FEFA0E7B2E0E8
:103ED0009150A040B040E1F700C000000E94E61001
:103EE00084CD81608093090386950E94FC1B7DCD63
:103EF00041EF5BE167EE7BE10E94B80A76CD47EEC9
:103F00005BE161EF7BE1F8CF4BE45AE162E47AE1F7
:103F1000F3CF42E45AE16BE47AE1EECF40E65AE1B6
:103F200064E57AE1E9CF44E55AE160E67AE1E4CF7D
:103F300048E75AE16CE67AE1DFCF4CE65AE168E700
:103F40007AE1DACF43E759E160E579E1D5CF40E5A1
:103F500059E163E779E1D0CF81E0C7CF65E082E046
:103F60000E94A01C42CD68E086E0FACF6EE089E0B6
:103F7000F7CF64E18FE0F4CF67E185E1F1CF88E12D
:103F8000B4CF62E289E1ECCF83E2AFCF0B355DE5E0
:103F9000150701F10C351D4509F045CF80910F0340
:103FA00082FB882780F991E089270E94A6143BCFE5
:103FB0000E944A169FEFA4E3BCE09150A040B0409D
:103FC000E1F700C000000E94EE130E94FF1B0DCD20
:103FD00081E0EBCF80E0E9CFF6018281E080F180E3
:103FE000882369F0C7010E94AF15182F682FC701F9
:103FF0000E942C06B701812F0E949C151BCFC70180
:104000000E945C06182FF6CFB12FBF70FB2E107FD9
:1040100019F0F29490EFF9228820C9F0FF2069F09E
:1040200080E2800F883010F001110BC080911303E3
:104030008F29809313030E94EA0B802F0E94070FA1
:1040400016C0809115038F2980931503F4CF802F1C
:104050000E94770CFF2059F080E2800F883010F02A
:1040600001113DC08F2D0E94F4060E94EA0B98E0DA
:10407000A91AB108A4E0AA16B10420F40E94A60B64
:104080000E943111EE20A9F08091160380FD11C02D
:10409000F60112828595859585950E94F40CC601DE
:1040A0000E94AD1C809116038595859585950E948B
:1040B000150D60E0C60128960FB6F894DEBF0FBE5E
:1040C000CDBFDF91CF911F910F91FF90EF90DF90C7
:1040D000CF90BF90AF909F908F900C94DE15F0948E
:1040E000809115038F2180931503BFCFE12FEF70CF
:1040F000FE2E107F103219F0F29480EFF822002388
:1041000091F0013009F457C0882009F460C099206B
:10411000A1F1D60115968C91159780FF8ECF8F70E7
:1041200015968C932AC0882051F1911006C0809179
:1041300010038F290E94400C9ACFF1E09F1213C008
:1041400080910F0382FD93CF80911003F82AF81617
:1041500009F48DCF0E94DE0B90931A03809319030C
:10416000F092100384CF25E09212E1CF0E94FC066A
:1041700080911403F812F09214038F2DDBCF91106D
:1041800006C00E94FC068F2D0E944A0C70CF41E0B1
:1041900094120CC0809113038F2109F468CF809191
:1041A0001403882371F310921403EBCF55E0951696
:1041B00009F45DCFE6CF882029F085E0891508F461
:1041C00056CFDBCF94E0991508F451CFDCCF99207E
:1041D000D1F2093309F03EC1BFEFE7EEF3E0B15091
:1041E000E040F040E1F700C00000802F0E94770C13
:1041F0003ECF812F86958695837061F0813009F0DE
:1042000036CFC8019370811002C090E080E00E9418
:10421000C80B2DCFC8019370811002C090E080E0E0
:104220000E94B20B24CF802F882039F00E943109E0
:104230000E94510C0E94510C1ACF0E948309FACFA0
:10424000812F8370A1F5811012CF802F82958695E2
:104250008770880F880F402F4F70082E01C0440FC1
:104260000A94EAF7202F207104FF07C02FE030E006
:1042700001C0220F8A95EAF72095169516951370BE
:10428000123081F0822F842B133031F08091110392
:10429000113029F0242B82230E94EA0CE8CE842BD3
:1042A000822BFACF242B809111038227F5CF88200F
:1042B00061F110FFDCCE802F829586958770880F84
:1042C000880F402F4F70082E01C0440F0A94EAF760
:1042D000202F207104FF07C02FE030E001C0220F23
:1042E0008A95EAF72095169516951370123099F075
:1042F000822F842B133031F080911203113041F062
:10430000242B82230E94EE0CB2CE11FFB0CED3CF6D
:10431000842B822BF7CF242B809112038227F2CF9C
:104320001F70882029F0812F0E94F40C802F02CF6B
:10433000802F0E944A0C812F0E94150D98CE023FBB
:1043400009F447C060F4003F31F1013FD1F188200A
:1043500009F474C0911071CE812F8F7137C0033F63
:10436000E9F1043FA1F780911403882009F44DC0BE
:104370000E94F4068091160387708430D1F5109264
:1043800016031092180310921703812F8F710E9449
:10439000150DE12C6CCE882079F094E0991508F485
:1043A00066CE1F7181E090E001C0880F1A95EAF790
:1043B000909112038927A6CFA5E0A91508F457CE3E
:1043C000F0CF812F8F71882009F4B6CF0E94F40CB2
:1043D0004ECE812F8F718820C9F3AECF80E0882028
:1043E00009F490CF1F7181E001C0880F1A95EAF798
:1043F00089CFB4E0B91568F21F71812F0E94F40CC7
:1044000063E0812F0E94FF0CC4CF90911303982B7F
:1044100090931303E4E0E91568F4109216031092E8
:1044200018031092170381111092140364E0812F76
:104430008F71E8CF81E00E94210DABCF992079F0F8
:10444000093341F4FFEF27EE43E0F15020404040B4
:10445000E1F7C9CE8FE39CE90197F1F7C4CE812F34
:104460008F716ACF0031FFE51F0709F454CB01318A
:104470002FE5120709F459CBF801EB5BFC45E73057
:10448000F105C0F4E457FB4C0C94563361E0C601CF
:104490000E94DE158C01D60112968C91811193CA6F
:1044A00000314FE5140709F43CCB01315FE51507F6
:1044B00009F43DCB033F2CE5120709F4C2CB08F009
:1044C000A6CB083D5CE5150709F4B7CB28E241E02F
:1044D000093D9CE5190709F4B2CB26E241EE61EEF5
:1044E000073DACE51A0709F4A5CB882361F11092CA
:1044F000050306312CE5120708F0ABCB02304CE582
:10450000140708F4B2CB0E94471590930F038093D1
:104510000E0306315CE5150708F0CCCB02308CE5C4
:10452000180708F0BACB60910E0310910F0384E0D6
:1045300090E00E94EE33612F82E290E00E94EE3321
:104540000E944A1652CA06311C4509F06CCC909163
:104550001303292F21719A7A211190E0882309F4FD
:1045600044CC81E0911101C080E08093060389E290
:10457000911185E30E9493060E94EA0B36CACF93FD
:10458000DF938091D002807FA1F48091CD028823B7
:1045900081F080918A02C09189027091CB02609172
:1045A000CC02A091CE02B091CF02D62FD723C81350
:1045B00003C0DF91CF91089590E0109711F0DF3F95
:1045C00019F401968770F3CF9C0143E0220F331F4B
:1045D0004A95E1F7F901E557FD4F41816413F1CFA9
:1045E00040814713EECF42814111EBCF438154818B
:1045F0004A1B5B0B483C510520F78091D0028F701D
:1046000080618093D002F901E057FD4F80818F7067
:10461000806180838BEC92E00E94AD1CDF91CF9192
:104620000C9489068F929F92AF92BF92DF92EF9285
:10463000FF920F931F93CF93DF93CDB7DEB72D97E4
:104640000FB6F894DEBF0FBECDBF8C0185E0F80138
:10465000DE01199601900D928A95E1F7F801E2804A
:10466000A380B4808BEC882E82E0982E9091CB02B0
:104670008091CC022091CE023091CF0221153105DC
:1046800029F0482F49234F3F09F051C1EE2009F48A
:104690005CC1C8010E941316F82E882309F455C185
:1046A00088E0F801ABECB2E001900D928A95E1F759
:1046B0000E94BF222AC0D090D0024D2D407F283CBE
:1046C000310508F0B5C0F80121814111CEC0FE2CA2
:1046D00028132EC0808189132BC04091D1025091A4
:1046E000D202868197814817590711F5E11020C041
:1046F0008D2D8F7080618093D0028BEC92E00E94B0
:10470000AD1C8091D002F80185838F2D2D960FB6B8
:10471000F894DEBF0FBECDBFDF91CF911F910F91F7
:10472000FF90EF90DF90BF90AF909F908F90089593
:104730003985AB2829F0822F83238F3F09F092C05F
:1047400080E0F82FF170DF2EE0918A02409189021B
:1047500080FD1DC0EE20C9F28091D002816080935F
:10476000D002F12CD2CF8E2F90E058E0E59FF001DF
:104770001124E557FD4F5181251306C05081531375
:1047800003C052815E11E6CF0196E82FE770E41373
:10479000EACF89859A850E940516292F22952F70C8
:1047A000903260F0225F2F70223078F49F7051F0C9
:1047B000F8019581907F31F4D12C0AC09F7011F0DF
:1047C0008823D1F3805E8830B8F3C8010E94AD1C05
:1047D000FD2C9BCFC8010E941316882309F4B5C095
:1047E000EE2009F4B2C08091D0028032A0F0809116
:1047F000CB029091CC029A8389831B82BD82AC82CA
:10480000DE828091D1029091D20298878F83CE016F
:1048100001960E94AD1C88E0F801ABECB2E001907B
:104820000D928A95E1F70E94BF22FF24F3946DCF89
:1048300041113AC08BEC92E00E94AD1C88E0F4017B
:1048400011928A95E9F78DCFC8010E941316811144
:10485000E2CF8091D00281608093D002C8010E9493
:10486000AD1C53CF81E08E256CCF2813B3CFF80158
:1048700080818913AFCF2091D1023091D2028681FD
:1048800097812817390709F0A5CFE110A3CFD5826A
:10489000C8010E94AD1C88E0F801ABECB2E00190C9
:1048A0000D928A95E1F731CFF8012181821392CFE1
:1048B000F801808189138ECF2091D1023091D202EC
:1048C000868197812817390709F084CFE11082CFBC
:1048D000D582C8010E94AD1C88E0F40111928A952E
:1048E000E9F713CFF80121818213AECFF80180815F
:1048F0008913AACF2091D1023091D202868197816B
:104900002817390709F0A0CF8091D00280FDC3CFCE
:10491000982F907F09F4BFCF8583903F09F4B8CFDB
:10492000982F907F905F8F70892B8583B1CFF09007
:10493000CD02A501421B530B9A01F110BCCE283CBD
:10494000310550F6FE2CE110CDCFC8010E94AD1C00
:104950006CCFCF93DF93CDB7DEB760970FB6F894E7
:10496000DEBF0FBECDBF29873A874B875C876D8737
:104970007E878F87988BCE0109960E941223811122
:1049800016C088E0FE013996DE01119601900D9265
:104990008A95E1F799858A85A091890220918A02FA
:1049A0004C855D85452B19F089238F3FA9F58091B2
:1049B0008A029091890289131CC060960FB6F89400
:1049C000DEBF0FBECDBFDF91CF91089593E0AA0F58
:1049D000BB1F9A95E1F7A557BD4F98E0FE013196B0
:1049E00001900D929A95E1F7809389020E948906C1
:1049F000DECFB8E08B9FC001112485579D4F0E94E8
:104A000012238823D1F280918A0290E00196877068
:104A1000992780938A02CBCFB0E0CD0101968770B1
:104A200099272817190691F60E944A1610928902B2
:104A300010928A0288E0EBECF2E0DF011D928A9589
:104A4000E9F7B5CF0F931F93CF93DF93809187033F
:104A5000E091FA011CE081111EC0DF91CF911F91FE
:104A60000F91089501E00E0F0093FA01CE2FD0E0D0
:104A70001E9FD0011124A95DBC4F13968D919C916E
:104A80001497892B39F08C9111969C911197892359
:104A90008F3F51F4E02F80918703E81718F31092AD
:104AA00087031092FA01D9CF16968D919C91179792
:104AB000892B29F418968D919C91019679F4E19FA8
:104AC000F0011124E95DFC4F208131814281538145
:104AD00064817581868197810E94A9241C9FF001C1
:104AE0001D9FF00D1124E95DFC4F14821382D2CF7B
:104AF0003F924F925F926F927F928F929F92AF926E
:104B0000BF92CF92DF92EF92FF920F931F93CF93BA
:104B1000DF9300D000D0CDB7DEB7209126032983E4
:104B200017E0812E01E010E08CE0382E9EEF992EE8
:104B30004424439480912503F9818F1319C00E9466
:104B400022250F900F900F900F90DF91CF911F9122
:104B50000F91FF90EF90DF90CF90BF90AF909F901C
:104B60008F907F906F905F904F903F900C94690B67
:104B70009981892F90E09C838B83FC01EE0FFF1FAE
:104B8000E55EFC4F80819181889ED001899EB00DA9
:104B90001124FD01E657FC4FFA83E983248121119A
:104BA00057C050908703E7E2F3E050E040E0712CFB
:104BB000451508F04BC0A284B384A981BA81CD9079
:104BC000DC902FEF3FEF612C662D70E07B01EE0C47
:104BD000FF1CEC0CFD1CD701ED90FC90E114F104DE
:104BE00031F0AE14BF0409F49B016394EDCF2F3F65
:104BF0003207C1F1D80102C0AA0FBB1F2A95E2F704
:104C00007A2A980102C0220F331F6A94E2F72150DA
:104C100031097216130621F5349EF001359EF00D10
:104C20001124E95DFC4F889ED001899EB00D1124AE
:104C3000A657BC4F12962D913C911397378326832C
:104C4000908291829187808715964C920E947A0B70
:104C5000EB81FC813196FA83E983E370E9836ACFC3
:104C6000148213824F5F5F4F3C96A2CF8F929F9228
:104C7000AF92BF92CF92DF92EF92FF920F931F936A
:104C8000CF93DF93CDB7DEB764970FB6F894DEBF4E
:104C90000FBECDBFFE01319684E1DF011D928A95E2
:104CA000E9F780E6E82E81E0F82E8F014F01CC2451
:104CB000C394D12CF70181917F018F3F09F44BC040
:104CC000F894E82FE295EF70F0E021A18F70A60133
:104CD00002C0440F551F8A95E2F7CA01922F982B04
:104CE00091A392A18095892382A3789400C0EAE6DB
:104CF000F1E030E020E0B12CA12C81918F3F09F44C
:104D000065C0A82FA295AF70A05EB0E04C9150E0B6
:104D10008F7002C0559547958A95E2F740FD56C0C1
:104D2000C601022E02C0880F991F0A94E2F7A82A32
:104D3000B92A2F5F3F4F2A303105F9F6F701319735
:104D400080818F3F11F00E94D50850EA5A95F1F703
:104D5000D801AD92BC920E5F1F4FBAE6EB16B1E0E0
:104D6000FB0609F0A7CF44E150E0B40183E792E0ED
:104D70000E94B6339C0111E0892B09F410E0232B2B
:104D800041F184E1F401A3E7B2E001900D928A952C
:104D9000E1F781E080935E020E94DE0B90935D025A
:104DA00080935C0280915C0290915D020E94410DB3
:104DB000059798F084E1E3E7F2E0AFE5B2E0019017
:104DC0000D928A95E1F710925E0207C080E090E0B4
:104DD000AECF80915E028111E5CF80911E018823C4
:104DE000F9F080918803909189030097C9F00E949F
:104DF000410D20912303309124032817390780F4B3
:104E000090912603809125039817F1F00E94782550
:104E100010922403109223031092890310928803A6
:104E2000812F64960FB6F894DEBF0FBECDBFDF9121
:104E3000CF911F910F91FF90EF90DF90CF90BF9097
:104E4000AF909F908F9008950E9422251092890321
:104E5000109288030E94690BE3CF1092890310928D
:104E6000880310921E0180912503809326030E94DF
:104E7000690B0C9422252F923F924F925F926F9272
:104E80007F928F929F92AF92BF92CF92DF92EF92DA
:104E9000FF920F931F93CF93DF93CDB7DEB76B973E
:104EA0000FB6F894DEBF0FBECDBF498B5A8B6B8B0C
:104EB0007C8B8D8B6111109215031E861F86188ABC
:104EC00085E0FE017196DE01199601900D928A959A
:104ED000E1F70E94DE0B2091170330911803821B2B
:104EE000930B8838934120F08091160382FF01C212
:104EF0000E94DE0B2091190330911A03821B930B41
:104F00008838934110F00E94FC0689859A852C858B
:104F10003D85232B21F089238F3F09F0D6C12985B8
:104F20003A854B855C856D857E858F8598890E9445
:104F3000A924C3C068EFC6166CE5D60629F48823F9
:104F400079F00E942D27EBCF79EFC7167CE5D706C5
:104F500039F4882329F080911E018111F2CFC5C157
:104F60000AE813E0E12CB12CA12C88248394912C25
:104F70009EEF592E44244394F801408151816624C8
:104F80006A9477247A9420E0822F90E0FC01EE0F5F
:104F9000FF1FE40FF51F608171816115710531F00C
:104FA000C616D70609F43C012F5FEECFF12CFFEFB8
:104FB0006F167F0609F443C0F8014481F0901E018A
:104FC0008F2D411180E0F82FF170FF2EF801258020
:104FD00086819B85992309F40BC1FF2009F408C140
:104FE000211013C0A40101C0440F6A94EAF7842B76
:104FF00086838091230390912403C29730F462E367
:1050000070E07093240360932303C40102C0880FEF
:10501000991F2A95E2F70197F801268128171906AA
:1050200071F48091880390918903009709F45EC020
:105030000E94410DC39708F459C0F8014482EF283B
:10504000FFEFAF1ABF0A095F1F4F24E0A216B10499
:1050500009F092CF8B85882309F422C1EE2009F450
:105060001FC10E94DE0B9093890380938803809177
:105070008703883010F591E0980F9093870398E0AC
:10508000FE013996DE01119601900D929A95E1F795
:105090003CE0839FC0011124895D9C4F28E0FE0104
:1050A0003196DC0101900D922A95E1F72FEF3FEF49
:1050B000FC0131872087D386C2866B960FB6F894A1
:1050C000DEBF0FBECDBFDF91CF911F910F91FF903B
:1050D000EF90DF90CF90BF90AF909F908F907F9098
:1050E0006F905F904F903F902F900895809126038E
:1050F000F0912503FE8B982FE0E0F0E00B8F512F0D
:105100002E89821314C0909326030E171F0709F4EB
:1051100096CF90E0FC01EE0FFF1FE55EFC4FB182E1
:10512000A0820196837099278093250388CF282E2B
:10513000312CF101EE0FFF1FE55EFC4F60817181A4
:1051400027E0269FD001279FB00D1124A657BC4F02
:105150006D917C9111977A8F698F40E020E030E06B
:10516000E32FF0E0EE0FFF1F698D7A8DE60FF71F3A
:105170006080718061147104E1F0F8010190F081A8
:10518000E02DF88FEF8B20E005C06616770609F456
:105190004F2D2F5FE22FF0E0EE0FFF1F6F89788D0C
:1051A000E60FF71F608171816115710571F73F5F2F
:1051B000D7CF4423D1F0EB8DF52F231708F0FD0155
:1051C00044820E171F0721F490932603F42E37CF45
:1051D000981305C0AE17BF0711F49F5F937091013C
:1051E0002F5F3F4F822F83708BCFE0E0F0E0F7CF4F
:1051F00090E021101FC0B40102C0660F771F2A95EE
:10520000E2F79B01215031092817390731F4442373
:1052100009F444C0C5010E947A0BC40101C0880F83
:105220006A94EAF7982F9095F801868189238683FE
:10523000F22C05CFAC01062C02C0559547950A9477
:10524000E2F79C012150310982239323892B11F528
:1052500040FF20C0F80182819381892BC1F01B821D
:105260001C821D821E8259825A820E94DE0B81603E
:10527000582F692F9D838C83F801828193818F83BE
:10528000988729813A814B817E810E94A924F80167
:105290001582C3CFF42FF1702F2EBFCF2F2CBDCF8F
:1052A0009091260380912503981731F00E9478256C
:1052B000EE2009F434CE01CF0E94222510928903FA
:1052C000109288030E94690BF3CF61E0CE0109962A
:1052D0000E94DE156C018B85F7EFCF16FCE5DF062B
:1052E00009F028CE882309F43BCE81E080931E018B
:1052F00016CE82E00E94210DFBCDCDB7DEB7AE9772
:105300000FB6F894DEBF0FBECDBF84B7877F84BFD2
:105310000FB6F894A8958091600088618093600032
:10532000109260000FBE80E890E00FB6F894809372
:105330006100909361000FBE85B7806885BF85B717
:10534000806885BF83ED98E09093A3018093A201CC
:105350000E948F1A0E94FD0D0E94A60E8091E2000D
:1053600084608093E200789480915B02882399F0B6
:105370008091E9001091EC001795112717958F7017
:10538000182B1092E9008091E80083FD0E945F16BF
:105390001F701093E90082E084BD93E095BD9AEF01
:1053A00097BD80936E000E945515811102C00E9426
:1053B0006C1B00E611E0AAE6EA2EA1E0FA2ED80165
:1053C0008D918D018F3F11F00E94D508E016F106F6
:1053D000B1F70AE611E0F4E7EF2EF1E0FF2EF80155
:1053E00081918F018F3F11F00E94D508E016F106E0
:1053F000B1F784E1E3E7F2E0DF01282F1D922A955F
:10540000E9F7EFE5F2E0DF011D928A95E9F70E94E6
:10541000841A811102C00E94FF1B82E090E00E946A
:10542000DA33809339020E94471590930F038093DB
:105430000E030E943626EFE3FCE93197F1F700C036
:1054400000000E94362680915F0280FF08C06FEF47
:105450007FEF90E080E00E940C340E94EE1383E026
:1054600090E00E94DA330E94EA0C809112030E94BD
:10547000990A509A589882E08093800089E180933D
:1054800081008FEF9FEF90938700809386000E94AA
:105490007A1C8091040381FF09C0109229021092A6
:1054A00028021092270281E0809326020E947A1C33
:1054B00080912A02811133C00E94841A811104C094
:1054C0000E94FF1B0E94411988E090E00E94E23395
:1054D0006093090370930A0380930B0390930C036A
:1054E0006E7F71F40E94411988E090E00E94E233DF
:1054F0006093090370930A0380930B0390930C034A
:105500000E94A90A109208038091090380FF04C039
:1055100060E086950E94911B81E080932A0283E0DF
:10552000809310018AE08093110187E0809312013B
:1055300083E00E943111FFEF25EA3EE0F150204068
:105540003040E1F700C0000080E00E94311183E1AB
:1055500091E09093880280938702E3E72E2EE2E0A9
:105560003E2E8E010F5F1F4F80915B02DD24D3948E
:1055700060E1E62E72E1F72E853009F4F8C10E9451
:105580003626882359F08FB7F894409152025091F3
:10559000530260915402709155028FBF5FE5C52E92
:1055A00052E0D52EEAE3F2E0D601F12CE12C7E2D7B
:1055B0008D919D91219131912817390709F4FCC1F2
:1055C0002827392760E0AA24A394B12CA9014A21F5
:1055D0005B21452B09F4EAC169837A839C012A2166
:1055E0003B2191E0232B09F490E09B830E94DE0B8A
:1055F0008160782F9D838C8349815A816B81892FAB
:105600000E943B27F701EE0FFF1FE65CFD4F8081F4
:1056100091818A259B25918380838091080388232B
:10562000D1F180910703E0910903E695E81BE0932F
:105630003002823009F0D9C1F0E0E25CF74FE4912A
:10564000EE2EF12C5AECA52E53E1B52E80913102AD
:10565000882361F0109231020E94DE0B90932F029A
:1056600080932E0210923302109232020E94DE0BBF
:1056700020912E0230912F02821B930B8F3F9F4768
:1056800050F42E0D3F1D30932F0220932E028EE2F8
:1056900092E0F501099586E0EEEFF2E0D801019085
:1056A0000D928A95E1F7A0900003B0900103E0907D
:1056B0000203F09003031092000310920103109272
:1056C0000203109203038A2D8B2909F448C08091AC
:1056D0003602909137020E94410D9C018091FD029B
:1056E000882309F49BC523333105C8F18F3F19F096
:1056F0008F5F8093FD02AA2059F00E94EF089FEF70
:105700001A140CF491E0899F802D112480930003DA
:10571000BB2059F00E94EF089FEF1B140CF491E09E
:10572000899F802D1124809301033091000333233E
:10573000B1F020910103222391F045EB3403C00125
:105740001124992309F4B5C19093000355EB250367
:1057500090011124332309F4B0C1309301038E2D3D
:105760008F2909F448C080913402909135020E943B
:10577000410D9C018091FC02882309F44AC525361D
:105780003105C8F18F3F19F08F5F8093FC02EE2046
:1057900059F00E940F099FEF1E140CF491E0899FAD
:1057A000802D112480930203FF2059F00E940F09DD
:1057B0009FEF1F140CF491E0899F802D112480939A
:1057C000030330910203209103033323A1F022232A
:1057D00091F045EB3403C0011124992309F471C100
:1057E0009093020355EB250390011124332309F410
:1057F0006CC1309303038091000390910103892BC6
:1058000090910203892B90910303892B11F00E9440
:10581000510C86E0F801AEEFB2E001900D928A954E
:10582000E1F70E94A60B90913802891731F00E948F
:10583000A60B809338020E94311180915B02843064
:1058400009F092CE83E08093E9008091E80082FF26
:105850008BCE8091E80090E085FF0AC00E94CC0DBD
:1058600050E2E52EF12C5801882309F43CC191E067
:105870008091E8008B778093E800992309F474CE37
:10588000E0905802F0905902E981E114F10409F422
:1058900038C1EE3F09F06CC18A81833020F0855019
:1058A000833008F065C1EA81EE3008F061C1F0E0B4
:1058B000ED56FB4C0C94563380915B02843009F416
:1058C00046C080E00E94080B80E00E9431111092D7
:1058D000080380912D02811116C0D0922D02809173
:1058E0000903982F917090932C028E7F8093090367
:1058F0004FEF50E782E0415050408040E1F700C058
:1059000000000E94E61010922B02A8E1B0E0E0E453
:105910000FB6F894A895A09360000FBEE0936000C6
:1059200083B7817F846083BF83B7816083BF7894AE
:10593000889583B78E7F83BF0FB6F894A895809122
:105940006000886180936000109260000FBE8091BB
:105950005A02882361F00E943626EFE5F2E0819139
:105960009191892B09F037C42E163F06C1F780911B
:105970005B02853009F4A0CF0E944A160E947A1C6F
:105980000E94A60B0E94311110922D0280912C02D0
:10599000882349F08091090381608093090360E0C6
:1059A00086950E94911B0E947B1BE9CD6F5FAA0C1C
:1059B000BB1C6A3009F00ACE2FEFE21AF20A3AE075
:1059C000E316F10409F0F3CD8FEF89A38AA31BA29C
:1059D0000E94DE0B8160782F9DA38CA349A15AA160
:1059E0006BA1892F0E943B2718CE853109F44DC049
:1059F00080F4893091F18F3009F43BC0863011F189
:105A000060EDE62E67E0F62E7EEEA72E78E0B72E4C
:105A10001DCE833209F444C0E4EFEE2EFF24F3944C
:105A2000FEE4AF2EF1E1BF2E843209F40FCE38E24E
:105A3000E32EF12C4CEAA42E42E1B42E883109F475
:105A400005CEDECFF0E0E55CF74FE491EE2EF12CD1
:105A50002EEDA22E23E1B22EF9CDE695F0E0E85C22
:105A6000F74FE491EE2EF12C9BE8A92E91E1B92E8F
:105A7000EDCDE695F0E0EB5CF74FE491EE2EF12CE6
:105A800086ECA82E81E1B82EE1CDF0E0EE5CF74F78
:105A9000E491EE2EF12CBCE3AB2EB2E1BB2ED6CDC1
:105AA000E0E3F8E0E590F490ABE6AA2EA3E1BA2E8D
:105AB000CDCD81E08093000349CE81E08093010346
:105AC0004ECE81E0809302038DCE81E0809303036C
:105AD00092CE8091F100D5018D935D01B1E0EB1A7A
